:1000000073C00000A2C00000A0C000009EC000009D
:100010009CC000009AC0000098C0000096C000007C
:1000200094C0000092C0000090C000008EC000008C
:100030008CC000008AC0000088C0000086C000009C
:1000400084C0000082C0000080C000007EC00000AC
:100050007CC000007AC0000078C000000C94C70F7C
:1000600074C000000C94910F0C94670F6EC00000D8
:100070006CC000006AC0000068C0000066C00000DC
:1000800064C0000062C0000060C000005EC00000EC
:100090005CC000005AC0000058C0000056C00000FC
:1000A00054C0000052C0000050C000004EC000000C
:1000B0004CC000004AC0000048C0000046C000001C
:1000C00044C0000042C0000040C000003EC000002C
:1000D0003CC000003AC0000038C0000036C000003C
:1000E00034C00000FB108A1711241FBECFEFD1E2ED
:1000F000DEBFCDBF00E00CBF12E0A0E0B2E0E2EE58
:10010000F3E300E00BBF02C007900D92AC3EB107D5
:10011000D9F726E0ACEEB2E001C01D92A93EB207CD
:10012000E1F710E0C3E7D0E000E006C02197010945
:10013000802FFE010E94D419C237D10780E0080742
:10014000A9F70E949C110C94E0195ACF1F93CF93EA
:10015000DF93182FC091D405D091D5058A3041F492
:10016000E881F9810190F081E02D6DE0CE011995D3
:10017000E881F9810190F081E02D612FCE01199580
:1001800021E030E0019711F430E020E0C901DF9177
:10019000CF911F910895CF93DF93C091D405D09153
:1001A000D505E881F9810084F185E02DCE0119950E
:1001B000892BB9F3E881F9810284F385E02DCE0122
:1001C000DF91CF91199480E991E00895DC01ED91E0
:1001D000FC910190F081E02D1994AF92BF92CF92E3
:1001E000DF92EF92FF920F931F93CF93DF936C01F7
:1001F0007B018B01040F151FEB015E01AE18BF08D8
:10020000C017D10759F06991D601ED91FC91019089
:10021000F081E02DC6011995892B79F7C501DF9191
:10022000CF911F910F91FF90EF90DF90CF90BF90F3
:10023000AF900895FC01538D448D252F30E0842F1D
:1002400090E0821B930B541710F0CF9608950197FE
:100250000895FC01918D828D981761F0A28DAE0FEB
:10026000BF2FB11D5D968C91928D9F5F9F73928F72
:1002700090E008958FEF9FEF0895FC01918D828D9E
:10028000981731F0828DE80FF11D858D90E008956B
:100290008FEF9FEF0895FC01918D228D892F90E0C3
:1002A000805C9F4F821B91098F739927089588ED79
:1002B00095E0F1DF21E0892B09F420E0822F0895F9
:1002C000FC01A48DA80FB92FB11DA35ABF4F2C91CB
:1002D000848D90E001968F739927848FA689B789C2
:1002E0002C93A089B1898C91837080648C93938DB9
:1002F000848D981306C00288F389E02D80818F7D5C
:1003000080830895EF92FF920F931F93CF93DF9313
:10031000EC0181E0888F9B8D8C8D98131AC0E88941
:10032000F989808185FF15C09FB7F894EE89FF8910
:100330006083E889F98980818370806480839FBFAE
:1003400081E090E0DF91CF911F910F91FF90EF90AE
:100350000895F62E0B8D10E00F5F1F4F0F731127BE
:10036000E02E8C8D8E110BC00FB607FCFACFE889FA
:10037000F989808185FFF5CFCE01A2DFF2CFEB8D29
:10038000EC0FFD2FF11DE35AFF4FF0829FB7F89459
:100390000B8FEA89FB8980818062D0CFCF93DF9376
:1003A000EC01888D8823B1F0AA89BB89E889F98995
:1003B0008C9185FD03C0808186FD0CC00FB607FCC3
:1003C000F7CF8C9185FFF2CF808185FFEDCFCE01F5
:1003D00077DFEACFDF91CF91089580E090E0892B1D
:1003E00021F065DF81110E94000080E090E0892B00
:1003F00049F080E090E0892B29F00E9400008111F3
:100400000E94000080E090E0892B49F080E090E0BD
:10041000892B29F00E94000081110E94000080E0D9
:1004200090E0892B49F080E090E0892B29F00E9430
:10043000000081110C94000008953FB7F89480915A
:10044000F3029091F402A091F502B091F60226B564
:10045000A89B05C02F3F19F00196A11DB11D3FBFFC
:10046000BA2FA92F982F8827BC01CD01620F711DCB
:10047000811D911D42E0660F771F881F991F4A95C5
:10048000D1F708952FB7F8946091EF027091F002C0
:100490008091F1029091F2022FBF0895CB0108954F
:1004A0004F925F926F927F92BF92CF92DF92EF92C4
:1004B000FF920F931F93CF93DF93EC0129013A0131
:1004C0008B01C12CD12C7601C414D504E604F704A9
:1004D0000CF03FC0F801B1908F018F8580FF0BC0F9
:1004E000E881F9810084F185E02D20E144E070E0AD
:1004F00060E0CE011995EB85FC858D859E85E8171A
:10050000F90760F4B0828B859C8501969C878B8768
:100510002FEFC21AD20AE20AF20AD6CF6B2D70E090
:10052000E881F981028CF38DE02DCE0119950196B9
:1005300079F7C701B601DF91CF911F910F91FF901D
:10054000EF90DF90CF90BF907F906F905F904F9033
:10055000089573016201EDCFCF93DF93EC01E88141
:10056000F9810288F389E02D19958F3F980731F0C2
:100570002D813E812F5F3F4F3E832D83DF91CF91B1
:1005800008958FEF9FEF089560E070E0CB0108952C
:1005900090E080E00895FF920F931F93CF93DF9335
:1005A0008C01EB016F3F7607A9F0F62EEAE06E139F
:1005B00005C06DE0F8018089918908DE6F2DF80192
:1005C0008089918903DECE01DF91CF911F910F9138
:1005D000FF900895D0E0C0E0F6CF7F928F929F9277
:1005E000AF92BF92CF92DF92EF92FF920F931F9341
:1005F000CF93DF938C0149015A01EB01C12CD12C1F
:100600007601C814D904EA04FB04A4F479908AE0C2
:10061000781205C06DE0F80180899189D7DD672DDA
:10062000F80180899189D2DDFFEFCF1ADF0AEF0A46
:10063000FF0AE7CFC501B401DF91CF911F910F9160
:10064000FF90EF90DF90CF90BF90AF909F908F90F2
:100650007F900895CF93DF93EC0188899989DC011D
:10066000ED91FC910084F185E02D1995892BA9F37A
:1006700088899989DC01ED91FC910284F385E02D54
:10068000DF91CF911994CF93DF93EC0188899989F9
:10069000DC01ED91FC910084F185E02D1995892B09
:1006A000A9F388899989DC01ED91FC910484F58591
:1006B000E02DDF91CF9119948F929F92AF92BF92CC
:1006C000CF92DF92EF92FF920F931F93CF93DF931E
:1006D0008C0149015A01EB01C12CD12C7601D801C2
:1006E00050968D919C91DC01ED91FC910284F385F3
:1006F000E02D19958F3F61F0C814D904EA04FB047A
:100700003CF48993BFEFCB1ADB0AEB0AFB0AE7CF75
:10071000C701B601DF91CF911F910F91FF90EF902C
:10072000DF90CF90BF90AF909F908F900895DC01A5
:1007300050968D919C91DC01ED91FC910084F185A6
:10074000E02D199490E080E0089590E080E0089515
:1007500090E080E0089508950895DC01ED91FC910A
:1007600036970190F081E02DE80FF91F82E792E0C3
:10077000918380838CE792E097838683089522E7B4
:1007800032E0FC01318320832CE732E0378326837B
:100790000895FB0120813181FC0131832083FB011D
:1007A0004281538126503109F90120813181820F24
:1007B000931FFC015183408308952EE832E0FC0131
:1007C0003183208328E932E0318F208F62E872E0A4
:1007D000E0CFDC01ED91FC91369720813181820FD1
:1007E000931FEBCF0895DC01ED91FC9136970190BA
:1007F000F081E02DE80FF91F8EE592E09183808370
:1008000088E692E09383828308952EE532E0FC012E
:100810003183208328E632E0338322830895FB016D
:1008200020813181FC0131832083FB01428153818E
:1008300026503109F90120813181820F931FFC017B
:100840005183408308952AEA32E0FC0131832083FA
:1008500024EB32E0358B248B6EE972E0E0CFDC01D3
:10086000ED91FC91369720813181820F931FEBCF60
:1008700008950F931F93CF93DF932091ED022F5F85
:10088000322F37703093ED0220FF2BC020E831FD6E
:100890002064347009F02062205FFC01EC01239693
:1008A00000E011E06485662329F070E0C8010E9431
:1008B000A7196F5F6187322F369F030E30E0311D1D
:1008C0001124311110C01682662311F06150618726
:1008D0003196EC17FD0731F7DF91CF911F910F9102
:1008E000089520E0D4CF31503683EECF4F925F92FF
:1008F0006F927F928F92AF92BF92CF92DF92EF92E0
:100900000F931F93CF93DF933C01EB0196DDF3012F
:1009100027853089621B730B6A307105B8F3F89430
:10092000E881F9817EB171606EB16E7F6EB9CA8463
:100930008F812C2D281B822F2F83BF844A805B80C0
:100940001D850C85DE841F5F0F5FD3949E813885E3
:10095000A984EB844181D20120E0C32F522F322F92
:100960003181442788943111380F08F43FEF819585
:10097000889410FD430F4795889411FD430F4795C8
:10098000889412FD430F4795889413FD430F4795B4
:10099000889414FD430F4795889415FD430F4795A0
:1009A000889416FD430F4795889417FD430F47958C
:1009B0008894232F1111242F8C0D422F002C7EB9E7
:1009C00000C047FF6EB930812227889400C000C064
:1009D000002C6EB93111390F00C0002C7EB900C057
:1009E00046FF6EB908F43FEF9195889400C000C0AF
:1009F000002C6EB900FD230F00C0002C7EB900C092
:100A000045FF6EB92795889401FD230F00C000C0F3
:100A1000002C6EB92795889400C0002C7EB900C0C8
:100A200044FF6EB902FD230F2795889400C000C0D3
:100A3000002C6EB903FD230F00C0002C7EB900C04E
:100A400043FF6EB92795889404FD230F00C000C0B2
:100A5000002C6EB92795889400C0002C7EB900C088
:100A600042FF6EB905FD230F2795889400C000C092
:100A7000002C6EB906FD230F00C0002C7EB900C00B
:100A800041FF6EB92795889407FD230F00C000C071
:100A9000002C6EB92795889400C0002C7EB900C048
:100AA00040FF6EB9432F0111422F9A0D00C000C0C4
:100AB000002C6EB900C000C0002C7EB900C047FFFA
:100AC0006EB932812227889400C000C0002C6EB914
:100AD00031113C0F00C0002C7EB900C046FF6EB93A
:100AE00008F43FEFEB0DF11D00C000C0002C6EB903
:100AF000D0FC230F00C0002C7EB900C045FF6EB9AA
:100B000027958894D1FC230F00C000C0002C6EB93B
:100B10002795889400C0002C7EB900C044FF6EB9B0
:100B2000D2FC230F2795889400C000C0002C6EB91A
:100B3000D3FC230F00C0002C7EB900C043FF6EB968
:100B400027958894D4FC230F00C000C0002C6EB9F8
:100B50002795889400C0002C7EB900C042FF6EB972
:100B6000D5FC230F2795889400C000C0002C6EB9D7
:100B7000D6FC230F00C0002C7EB900C041FF6EB927
:100B800027958894D7FC230F00C000C0002C6EB9B5
:100B90002795889400C0002C7EB900C040FF6EB934
:100BA000432FD110422FC19500C000C0002C6EB958
:100BB000CE0D00C000C07EB900C047FF6EB93181C4
:100BC0002227889400C000C0002C6EB93111380F64
:100BD00000C0002C7EB900C046FF6EB908F43FEF9C
:100BE0008195889400C000C0002C6EB910FD230FC1
:100BF00000C0002C7EB900C045FF6EB927958894CF
:100C000011FD230F00C000C0002C6EB927958894F9
:100C100000C0002C7EB900C044FF6EB912FD230F46
:100C20002795889400C000C0002C6EB913FD230FD7
:100C300000C0002C7EB900C043FF6EB92795889490
:100C400014FD230F00C000C0002C6EB927958894B6
:100C500000C0002C7EB900C042FF6EB915FD230F05
:100C60002795889400C000C0002C6EB916FD230F94
:100C700000C0002C7EB900C041FF6EB92795889452
:100C800017FD230F00C000C0002C6EB92795889473
:100C900000C0002C7EB900C040FF6EB9432F111177
:100CA000422F8C0D00C000C0002C6EB9119709F0C6
:100CB00086CE20EE31E0D2010E94BA19DC01CB01D0
:100CC000F4E0B695A79597958795FA95D1F730E01A
:100CD00020E0B901EAE94E9E040C611D5E9E600DA4
:100CE000711D1124650D711D860F971FA11DB11D6A
:100CF000893E43E09407A105B10508F434C0885E3D
:100D00009340A109B10942E0B695A79597958795BB
:100D10004A95D1F747E0849F080E211D949F200D2E
:100D2000311D1124290F311D6091EC0270E0860FF6
:100D3000971F820F931F4091EF025091F002609134
:100D4000F1027091F202292F3327420F531F611DC8
:100D5000711D4093EF025093F0026093F102709383
:100D6000F2028093EC02789468DBF301708B678762
:100D7000DF91CF911F910F91EF90DF90CF90BF90B7
:100D8000AF908F907F906F905F904F900895689A8A
:100D900008950F931F93CF93DF93CDB7DEB762977C
:100DA0000FB6F894DEBF0FBECDBF8C01F901DC0198
:100DB0001C968C917A8369835C834B835E834D831D
:100DC00090819D8791819E8792819F878130E9F4F0
:100DD000CE0101964EDD83E0888B1A8A198AD801EC
:100DE000ED91FC910484F585E02DBE016F5F7F4F8E
:100DF000C801199562960FB6F894DEBF0FBECDBF3D
:100E0000DF91CF911F910F9108951C861B861A8642
:100E1000198618861F82DFCF0F931F93CF93DF931E
:100E2000CDB7DEB762970FB6F894DEBF0FBECDBF69
:100E30008C01F901DC011C968C917A8369835C83B7
:100E40004B835E834D8390819D8791819E879281A4
:100E50009F878130E1F4CE0101960BDD188A1A8A52
:100E6000198AD801ED91FC910484F585E02DBE012D
:100E70006F5F7F4FC801199562960FB6F894DEBF79
:100E80000FBECDBFDF91CF911F910F9108951C86AA
:100E90001B861A86198618861F82E0CF90E080E0B4
:100EA0000895FC01858596850895CF93DF9300D042
:100EB00000D0CDB7DEB7AB011C821D821E82DC01E3
:100EC000ED91FC910190F081E02D19821A821B8234
:100ED0009E012F5F3F4FBE016C5F7F4F1995269695
:100EE0000FB6F894DEBF0FBECDBFDF91CF9108954E
:100EF000CF93DF93EC01A7DCCE01DF91CF910C946F
:100F0000CD18DC01ED91FC91369720813181820F63
:100F1000931FEECFCF93DF93EC014FDCCE01DF9137
:100F2000CF910C94CD18DC01ED91FC913697208186
:100F30003181820F931FEECF0C94CD180C94CD18F5
:100F4000DC01ED91FC91369720813181820F931F56
:100F5000F5CF0C94CD180C94CD18DC01ED91FC91DB
:100F6000369720813181820F931FF5CF0C94CD18D5
:100F7000FC01808191810C94CD180F931F93CF9326
:100F8000DF93EC01088119817B836A83CB01880F91
:100F9000991F0E943118888399832C813D81FC011F
:100FA000D80190E080E02817390759F0309729F0F0
:100FB0004D915C9111975183408301963296129620
:100FC000F2CFC801DF91CF911F910F910C94CD18F2
:100FD000EF92FF920F931F93CF93DF93EC018C81DD
:100FE0009D817C012FEFE21AF20A8E159F0570F5A4
:100FF0008B012A813B812E153F0540F4BC01675FC0
:101000007F4F2617370710F4CE01B7DF8C819D8103
:101010009C01220F331F8E159F0578F4E881F9811A
:10102000E20FF31F309729F0D8014D915C91518365
:10103000408301962E5F3F4FEECFFD82EC82DF9121
:10104000CF911F910F91FF90EF9008951D821C8208
:10105000F6CFAF92BF92CF92DF92EF92FF920F93B3
:101060001F93CF93DF931F921F92CDB7DEB77C0102
:101070008B016A0188E090E0F701938382831582F7
:10108000148280E190E00E943118F70191838083FF
:101090000C151D05BCF401501109C016D10609F448
:1010A0003FC0C801880F991F800F911F8E5E9C4F13
:1010B0009A838983BE016F5F7F4FC70189DF0F5F0E
:1010C0001F4FEBCFC016D106ECF4B12CA12CF1E0F0
:1010D000CF1AD1088FEFA81AB80A98012A193B092C
:1010E0002C153D05ECF0C901880F991F820F931F45
:1010F0008E5E9C4F9A838983BE016F5F7F4FC701CD
:1011000067DFE8CFC801880F991F080F191F0E5E0F
:101110001C4F1A830983BE016F5F7F4FC70158DFE1
:10112000C7010F900F90DF91CF911F910F91FF900A
:10113000EF90DF90CF90BF90AF900895AF92BF92A5
:10114000CF92DF92EF92FF920F931F93CF93DF9393
:10115000EC01CC80DD8086010F5F1F4FC016D106E9
:1011600008F04EC07B012A813B812017310720F512
:10117000C601099628173907F8F4A880B9809B831F
:101180008A83880F991F0E94311888839983FC01F4
:10119000D50190E080E0C816D90659F0309729F0C3
:1011A0002D913C91119731832083019632961296AE
:1011B000F2CFC5010E94CD188C819D819C01220F28
:1011C000331F8017910778F4E881F981E20FF31F4C
:1011D000309729F0D7014D915C915183408301965E
:1011E0002E5F3F4FEECF1D830C83DF91CF911F9178
:1011F0000F91FF90EF90DF90CF90BF90AF90089548
:101200001D821C82F2CFCF92DF92EF92FF920F935A
:101210001F93CF93DF931F921F92CDB7DEB78C0140
:101220007B0188E090E0F801938382831582148229
:1012300080E190E00E943118F801918380838FEF64
:10124000878380878187F701C080D180E480F58023
:10125000EE0CFF1CEC0CFD1CCE14DF0461F0F6015B
:10126000819191916F019A838983BE016F5F7F4F56
:10127000C801AEDEF1CF0F900F90DF91CF911F919B
:101280000F91FF90EF90DF90CF900895AF92BF92B3
:10129000CF92DF92EF92FF920F931F93CF93DF9342
:1012A000CDB7DEB7C758D1090FB6F894DEBF0FBE71
:1012B000CDBFE0907506F090760644ED50E063ED0A
:1012C00070E08E010F5F1F4FC801C3DE8AE090E01F
:1012D0000E9431186C01B80196DFD986C886670173
:1012E00087E0C80ED11CBE01685F7F4FC60126DFB4
:1012F000C8013EDE48ED50E066ED70E0C801A9DEB1
:101300008AE090E00E9431185C01B8017CDFBB8666
:10131000AA86BE01665F7F4FC60110DFC80128DEC6
:1013200041E650E06BE570E0C80193DE8AE090E0B2
:101330000E9431185C01B80166DFBD86AC86BE0133
:10134000645F7F4FC601FADEC80112DE4FE050E055
:101350006DE070E0C8017DDE8AE090E00E94311807
:101360005C01B80150DFBF86AE86BE01625F7F4F71
:10137000C601E4DEC801FCDD48EB50E065EB70E03F
:10138000C80167DE8AE090E00E9431186C01B80164
:101390003ADFD98AC88A67018EE0C80ED11CBE0127
:1013A000605F7F4FC601CADEC801E2DD4DED50E04F
:1013B0006AED70E0C8014DDE8AE090E00E943118CD
:1013C0005C01B80120DFBB8AAA8ABE016E5E7F4F36
:1013D000C601B4DEC801CCDD4EEC50E061ED70E03A
:1013E000C80137DE8AE090E00E9431185C01B80144
:1013F0000ADFBD8AAC8ABE016C5E7F4FC6019EDEED
:10140000C801B6DD4DEB50E06AEB70E0C80121DEAB
:101410008AE090E00E9431185C01B801F4DEBF8AD6
:10142000AE8ABE016A5E7F4FC60188DEC801A0DDBC
:1014300048EC50E06CEC70E0C8010BDE8AE090E014
:101440000E9431185C01B801DEDEB98EA88EBE01A3
:10145000685E7F4FC60172DEC8018ADD4EEA50E049
:1014600062EB70E0C801F5DD8AE090E00E9431187F
:101470005C01B801C8DEBB8EAA8EBE01665E7F4FDE
:10148000C6015CDEC80174DD4CE950E067E970E03C
:10149000C801DFDD8AE090E00E9431185C01B801EC
:1014A000B2DEBD8EAC8EBE01645E7F4FC60146DEED
:1014B000C8015EDD43EC50E060EC70E0C801C9DDBE
:1014C0008AE090E00E9431185C01B8019CDEBF8E7A
:1014D000AE8EBE01625E7F4FC60130DEC80148DDC0
:1014E00041EE50E06EED70E0C801B3DD8AE090E0BF
:1014F0000E9431185C01B80186DEB9A2A8A2BE0123
:10150000605E7F4FC6011ADEC80132DD40EA50E05E
:101510006DE970E0C8019DDD8AE090E00E9431181D
:101520005C01B80170DEBBA2AAA2BE016E5D7F4F56
:10153000C60104DEC8011CDD44EC50E066EC70E03E
:10154000C80187DD8AE090E00E9431185C01B80193
:101550005ADEBDA2ACA2BE016C5D7F4FC601EEDDBE
:10156000C80106DD48EA50E06DEA70E0C80171DDAF
:101570008AE090E00E9431185C01B80144DEBFA20D
:10158000AEA2BE016A5D7F4FC601D8DDC801F0DCA6
:1015900042E750E068E770E0C8015BDD8AE090E078
:1015A0000E9431186C01B8012EDED9A6C8A66701C9
:1015B00085E1C80ED11CBE01685D7F4FC601BEDD4E
:1015C000C801D6DC47E850E061E870E0C80141DDC1
:1015D0008AE090E00E9431185C01B80114DEBBA6DD
:1015E000AAA6BE01665D7F4FC601A8DDC801C0DCAA
:1015F0004BE650E061E770E0C8012BDD8AE090E047
:101600000E9431185C01B801FEDDBDA6ACA6BE018A
:10161000645D7F4FC60192DDC801AADC40E850E05E
:1016200069E770E0C80115DD8AE090E00E9431189A
:101630005C01B801E8DDBFA6AEA6BE01625D7F4FCA
:10164000C6017CDDC80194DC4EE850E064E970E03E
:10165000C801FFDC8AE090E00E9431186C01B801FB
:10166000D2DDD9AAC8AA67018CE1C80ED11CBE017F
:10167000605D7F4FC60162DDC8017ADC48E850E05A
:101680006BE870E0C801E5DC8AE090E00E94311868
:101690005C01B801B8DDBBAAAAAABE016E5C7F4F8F
:1016A000C6014CDDC80164DC45EA50E063EA70E045
:1016B000C801CFDC8AE090E00E9431186C01B801CB
:1016C000A2DDDDAACCAA670183E2C80ED11CBE014F
:1016D0006C5C7F4FC60132DDC8014ADC40E150E05E
:1016E00062E170E0C801B5DC8AE090E00E94311848
:1016F0005C01B80188DDBFAAAEAABE016A5C7F4F5B
:10170000C6011CDDC80134DC49E650E067E670E044
:10171000C8019FDC8AE090E00E9431186C01B8019A
:1017200072DDD9AEC8AE67018AE2C80ED11CBE0117
:10173000685C7F4FC60102DDC8011ADC46E650E056
:1017400063E670E0C80185DC8AE090E00E94311811
:101750005C01B80158DDBBAEAAAEBE01665C7F4F2E
:10176000C601ECDCC80104DC49E350E06CE370E046
:10177000C8016FDC8AE090E00E9431186C01B8016A
:1017800042DDDDAECCAE670181E3C80ED11CBE01E7
:10179000645C7F4FC601D2DCC801EADB42E450E062
:1017A0006FE370E0C80155DC8AE090E00E943118D8
:1017B0005C01B80128DDBFAEAEAEBE01625C7F4FFA
:1017C000C601BCDCC801D4DB44E350E067E370E051
:1017D000C8013FDC8AE090E00E9431185C01B8014A
:1017E00012DD2296BFAEAEAE2297BE01605C7F4F87
:1017F000C601A4DCC801BCDB47E550E06AE570E047
:10180000C80127DC8AE090E00E9431185C01B80131
:10181000FADC2496BFAEAEAE2497BE016E5B7F4F5E
:10182000C6018CDCC801A4DB4CE450E060E570E04C
:10183000C8010FDC8AE090E00E9431185C01B80119
:10184000E2DC2696BFAEAEAE2697BE016C5B7F4F44
:10185000C60174DCC8018CDB4FE250E063E370E04A
:10186000C801F7DB8AE090E00E9431185C01B80102
:10187000CADC2896BFAEAEAE2897BE016A5B7F4F2A
:10188000C6015CDCC80174DB4BE450E066E470E048
:10189000C801DFDB8AE090E00E9431185C01B801EA
:1018A000B2DC2A96BFAEAEAE2A97BE01685B7F4F10
:1018B000C60144DCC8015CDB42E550E065E570E050
:1018C000C801C7DB8AE090E00E9431185C01B801D2
:1018D0009ADC2C96BFAEAEAE2C97BE01665B7F4FF6
:1018E000C6012CDCC80144DB44E250E061E270E058
:1018F000C801AFDB8AE090E00E9431185C01B801BA
:1019000082DC2E96BFAEAEAE2E97BE01645B7F4FDB
:10191000C60114DCC8012CDB47E150E06AE170E04D
:10192000C80197DB8AE090E00E9431185C01B801A1
:101930006ADC6096BFAEAEAE6097BE01625B7F4F61
:10194000C601FCDBC80114DB45E450E063E470E051
:10195000C8017FDB8AE090E00E9431185C01B80189
:1019600052DC6296BFAEAEAE6297BE01605B7F4F47
:10197000C601E4DBC801FCDA4DE250E068E270E049
:10198000C80167DB8AE090E00E9431185C01B80171
:101990003ADC6496BFAEAEAE6497BE016E5A7F4F1E
:1019A000C601CCDBC801E4DA49E050E063E070E056
:1019B000C8014FDB8AE090E00E9431186C01B80149
:1019C00022DC6696DFAECEAE6697BE016C5A7F4FC4
:1019D000C701C896B3DBC801CBDA45ED50E065ED31
:1019E00070E0C80136DB8AE090E00E9431186C019B
:1019F000B80109DC6896DFAECEAE68978FE3E80EDB
:101A0000F11CBE016A5A7F4FC70198DBC801B0DAEA
:101A100049ED50E069ED70E0C8011BDB8AE090E021
:101A20000E9431186C01B801EEDB6A96DFAECEAED3
:101A30006A97BE01685A7F4FC70180DBC80198DAF8
:101A400042ED50E062ED70E0C80103DB8AE090E017
:101A50000E9431186C01B801D6DB6C96DFAECEAEB9
:101A60006C97BE01665A7F4FC70168DBC80180DAF8
:101A700048ED50E068ED70E0C801EBDA8AE090E0F4
:101A80000E9431186C01B801BEDB6E96DFAECEAE9F
:101A90006E97BE01645A7F4FC70150DBC80168DAF8
:101AA00047EC50E067EC70E0C801D3DA8AE090E0E0
:101AB0000E9431186C01B801A6DBA096DFAECEAE55
:101AC000A097BE01625A7F4FC70138DBC80150DAC8
:101AD00049EB50E069EB70E0C801BBDA8AE090E0C6
:101AE0000E9431186C01B8018EDBA296DFAECEAE3B
:101AF000A297BE01605A7F4FC70120DBC80138DAC8
:101B00004FEB50E06EEB70E0C801A3DA8AE090E0A2
:101B10000E9431186C01B80176DBA496DFAECEAE20
:101B2000A497BE016E597F4FC70108DBC80120DAB8
:101B300043EB50E064EB70E0C8018BDA8AE090E0A0
:101B40000E9431185C016801B8015DDBA696BFAE4A
:101B5000AEAEA697BE016C597F4FC701EFDAC80140
:101B600007DA4FEB50E06EEB70E0C80172DA8AE002
:101B700090E00E9431185C01B80145DBA896BFAE29
:101B8000AEAEA897BE016A597F4FC701D7DAC80128
:101B9000EFD942EA50E061EA70E0C8015ADA8AE01F
:101BA00090E00E9431185C01B8012DDBAA96BFAE0F
:101BB000AEAEAA97BE0168597F4FC701BFDAC80110
:101BC000D7D945E950E066E970E0C80142DA8AE019
:101BD00090E00E9431185C01B80115DBAC96BFAEF5
:101BE000AEAEAC97BE0166597F4FC701A7DAC801F8
:101BF000BFD94CE850E06DE870E0C8012ADA8AE00D
:101C000090E00E9431185C01B801FDDAAE96BFAEDB
:101C1000AEAEAE97BE0164597F4FC7018FDAC801DF
:101C2000A7D94AE650E06AE670E0C80112DA8AE015
:101C300090E00E9431185C01B801E5DAE096BFAE91
:101C4000AEAEE097BE0162597F4FC70177DAC80197
:101C50008FD942E650E062E670E0C801FAD98AE026
:101C600090E00E9431185C01B801CDDAE296BFAE77
:101C7000AEAEE297BE0160597F4FC7015FDAC8017F
:101C800077D946E550E066E570E0C801E2D98AE020
:101C900090E00E9431185C01B801B5DAE496BFAE5D
:101CA000AEAEE497BE016E587F4FC70147DAC80158
:101CB0005FD941E550E061E570E0C801CAD98AE02A
:101CC00090E00E9431185C01B8019DDAE696BFAE43
:101CD000AEAEE697BE016C587F4FC7012FDAC80140
:101CE00047D94EE350E06DE370E0C801B2D98AE015
:101CF00090E00E9431185C01B80185DAE896BFAE29
:101D0000AEAEE897BE016A587F4FC70117DAC80127
:101D10002FD948E350E068E370E0C8019AD98AE01F
:101D200090E00E9431185C01B8016DDAEA96BFAE0E
:101D3000AEAEEA97BE0168587F4FC701FFD9C80110
:101D400017D94EE250E06EE270E0C80182D98AE015
:101D500090E00E9431185C01B80155DAEC96BFAEF4
:101D6000AEAEEC97BE0166587F4FC701E7D9C801F8
:101D7000FFD840E250E06FE170E0C8016AD98AE024
:101D800090E00E9431188C01B6013DDAEE961FAF4B
:101D90000EAFEE97BE0164587F4FC701CFD9C60181
:101DA000E7D847E250E065E270E0C60152D98AE028
:101DB00090E00E9431188C01B60125DAC258DF4F3D
:101DC00019830883CE57D040BE0162587F4FC701A8
:101DD000B5D9C601CDD84BE150E06EE170E0C60147
:101DE00038D98AE090E00E9431188C01B6010BDAF4
:101DF000C058DF4F19830883C058D040BE016058D7
:101E00007F4FC7019BD9C601B3D843E150E066E1DB
:101E100070E0C6011ED98AE090E00E9431188C0162
:101E2000B601F1D9CE57DF4F19830883C258D0408D
:101E3000BE016E577F4FC70181D9C60199D842E0D4
:101E400050E061E070E0C60104D98AE090E00E94B1
:101E500031188C01B601D7D9CC57DF4F19830883CD
:101E6000C458D040BE016C577F4FC70167D9C60127
:101E70007FD84CE050E06AE070E0C601EAD88AE022
:101E800090E00E9431188C01B601BDD9CA57DF4FCE
:101E900019830883C658D040BE016A577F4FC701D7
:101EA0004DD9C60165D8C957DF4F0FB6F894DEBFCC
:101EB0000FBECDBFDF91CF911F910F91FF90EF909B
:101EC000DF90CF90BF90AF9008950E94DC191F92D1
:101ED0000F920FB60F9211240BB60F922F933F93D0
:101EE0004F935F936F937F938F939F93AF93BF9322
:101EF000EF93FF9388ED95E00E946001FF91EF91D1
:101F0000BF91AF919F918F917F916F915F914F9111
:101F10003F912F910F900BBE0F900FBE0F901F900F
:101F200018951F920F920FB60F9211240BB60F92B5
:101F30002F938F939F93EF93FF93E091E805F09198
:101F4000E9058081E091EE05F091EF0582FD1DC06D
:101F500090818091F1058F5F8F732091F205821738
:101F600041F0E091F105F0E0E852FA4F958F80934F
:101F7000F105FF91EF919F918F912F910F900BBEE3
:101F80000F900FBE0F901F9018958081F2CF1F9277
:101F90000F920FB60F9211242F933F938F939F931D
:101FA000AF93BF938091EF029091F002A091F10264
:101FB000B091F2023091EE0223E0230F2D3758F555
:101FC0000196A11DB11D2093EE028093EF02909324
:101FD000F002A093F102B093F2028091F30290918B
:101FE000F402A091F502B091F6020196A11DB11D77
:101FF0008093F3029093F402A093F502B093F6025B
:10200000BF91AF919F918F913F912F910F900FBEF4
:102010000F901F90189526E8230F0296A11DB11D61
:10202000D2CFCF93DF93EB0188819981A1EBB6E00A
:1020300011969C938E932A813B810697EC01E8814F
:10204000F981EF54F94F3183208312961D921D922E
:102050001D921C92159781E290E09483838387EB15
:1020600096E0948B838B1582158ADF91CF9108952A
:10207000CF93DF93C1EBD6E081E290E09C8F8B8F12
:102080001D8E1E8E1F8E86E090E0A0E0B0E088A33B
:1020900099A3AAA3BBA31CA21DA21EA21FA284E3F4
:1020A00092E0998F888F80E288A71AA619A687EBFD
:1020B00096E09CA78BA71DA6AC0162E872E0CE015A
:1020C000B0DF8EE892E09983888388E992E0998F67
:1020D000888F1A8619861C861B861E861D86188A7E
:1020E0001F861A8A198A1C8A1B8A8CE392E09F83B6
:1020F0008E8388ED95E09F8B8E8B88E08D8BDF91B2
:10210000CF910895DB018D919C9111979093880652
:102110008093870612962D913C910697DC01ED91F4
:10212000FC91E957F94F3183208381E290E0948359
:10213000838389E896E0948B838B1582158A0895B2
:10214000CF93DF93C7E8D6E081E290E0988F8F8B42
:10215000198E1A8E1B8E86E090E0A0E0B0E08C8F86
:102160009D8FAE8FBF8F18A219A21AA21BA284E363
:1021700092E09D8B8C8B80E28CA31EA21DA289E82D
:1021800096E098A78FA319A6AC016EE972E0CE0184
:10219000B9DF8AEA92E09983888384EB92E09D8B91
:1021A0008C8B1E821D8218861F821A8619861C86B9
:1021B0001B861E861D86188A1F868CE392E09B83F1
:1021C0008A8388ED95E09B8B8A8B80E1898BDF91F8
:1021D000CF910895CF93DF93EC0188E090E09B834B
:1021E0008A831D821C8280E190E03BD7998388839B
:1021F000DF91CF910895EF92FF920F931F93CF93AA
:10220000DF93C8EDD5E01B821A8288EE93E0A0E050
:10221000B0E08C839D83AE83BF838EED92E0998383
:10222000888385EC90E09D878C8784EC90E09F8785
:102230008E8780EC90E0998B888B81EC90E09B8B73
:102240008A8B82EC90E09D8B8C8B86EC90E09F8B50
:102250008E8B198E1A8E1B8E1C8EE7ECF5E08FEF9D
:10226000808312821182148613868FEF9FEFDC0128
:1022700087839087A187B287BE0187E896E060DFF9
:10228000BE0181EB96E0F4DE04ED15E0F801138267
:102290001282D183C0836BEC70E086EA90E07DD639
:1022A000F8019383828381E090E0DBD67C01C7E76D
:1022B000D6E008E010E01D830C831F821E8280ECB4
:1022C00090E0CFD69B838A83F982E88286E490E00F
:1022D000C8D6EC017FDFCE0107967CDFCE010E96DB
:1022E00079DFCE01459676DFCE014C9673DFCE01C5
:1022F000839670DFCE018A966DDFCE01C1966ADFCC
:10230000CE01C89667DFCE01CF9664DFD093760604
:10231000C0937506C0E8D6E01B830A831D821C8229
:1023200088E390E09ED699838883DF91CF911F91B7
:102330000F91FF90EF900895CF93DF9300D01F92FD
:102340001F92CDB7DEB7789484B5826084BD84B522
:10235000816084BD85B5826085BD85B5816085BDA0
:1023600080916E00816080936E0010928100809158
:1023700081008260809381008091810081608093E0
:102380008100809180008160809380008091B10005
:1023900084608093B1008091B00081608093B00030
:1023A0008091910082608093910080919100816082
:1023B0008093910080919000816080939000809143
:1023C000A10082608093A1008091A1008160809330
:1023D000A1008091A00081608093A00080912101E4
:1023E000826080932101809121018160809321018D
:1023F0008091200181608093200180917A00846027
:1024000080937A0080917A00826080937A00809134
:102410007A00816080937A0080917A00806880934E
:102420007A001092C100E091E805F091E90582E0A0
:102430008083E091E405F091E5051082E091E605E6
:10244000F091E70580E180831092F005E091EC05C2
:10245000F091ED0586E08083E091EA05F091EB05CF
:10246000808180618083E091EA05F091EB058081B5
:1024700088608083E091EA05F091EB0580818068B7
:102480008083E091EA05F091EB0580818F7D808368
:1024900080910A03811145C01092FC021092FB0248
:1024A0008FEF8093FF02809300038093010380935A
:1024B0000203809303038093040381E08093050368
:1024C00010920703109206031092FE021092FD0272
:1024D0008091BB059091BC05892B31F489EF92E086
:1024E0009093BC058093BB05E091F702F091F80250
:1024F000309721F089EF92E09583848389EF92E011
:102500009093F8028093F702109209031092080347
:102510008CEC92E09093FA028093F90281E0809330
:102520000A03689A82E193E09093FC028093FB0295
:1025300081EE90E090930703809306038091CA0593
:102540009091CB05A091CC05B091CD05843C29E0BC
:102550009207A105B10520F484EC99E0A0E0B0E079
:102560008093CA059093CB05A093CC05B093CD057D
:102570000E94460980917B0690917C0688359240A6
:1025800008F09DC0C0907906D0907A0688E592E068
:1025900090937C0680937B0680E498E362D59093C9
:1025A0007A06809379067601B12CA12C80917D0664
:1025B00090917E06A816B90608F07FC000917906B2
:1025C00010917A06C7018C199D09080F191F011572
:1025D000110509F467C0D7018C91F8018083119629
:1025E0008C911197818312968C9112978283139606
:1025F0008D919C9114979483838315968D919C91D2
:1026000016979683858317968D919C91189790873E
:10261000878319968D919C911A97928781871B9633
:102620008C911B9783871C968C911C9784871D9691
:102630008C911D97858752968D909C90938A828A63
:10264000C4010896918B808B880F991F0AD5D801F9
:102650001E968C931E971F969C93FC0190E080E041
:102660008816990699F0D7011E964D915C919C01B0
:10267000220F331FDA01A20FB31F309721F02D91E3
:102680003C913183208301963296EACFF701858908
:10269000D80155968C9355978689978957969C9320
:1026A0008E935697C7010E960E94B807BFEFAB1ADC
:1026B000BB0AE8E1EE0EF11C79CFC6016ED5E2E16E
:1026C000F3E085EB95E010821182128233968E172B
:1026D0009F07C9F78AEA8093C7050E941D024B0134
:1026E0005C01B8EBCB2EBBE0DB2EE12CF12C0E9481
:1026F0001D02681979098A099B09683E73408105A2
:102700009105A8F3F1E0CF1AD108E108F10828EE0D
:10271000820E23E0921EA11CB11CC114D104E1045D
:10272000F10429F7C090C505D090C60548E4C41A45
:1027300044EFD40A0D2C000CEE08FF080E94420260
:10274000C616D706E806F90698F40E94420270936E
:10275000C6056093C5058091C3059091C405019697
:102760008C3391050CF0BCC09093C4058093C305D5
:102770000E9442022FE030E040E050E0A8D5672BF5
:10278000682B692B09F015C1F090C7058091CA0527
:102790009091CB05A091CC05B091CD05892B8A2BCA
:1027A0008B2BD9F00E941D020091BD051091BE0532
:1027B0002091BF053091C005601B710B820B930BFC
:1027C0000091CA051091CB052091CC053091CD0523
:1027D0006017710782079307C8F20E941D02609379
:1027E000BD057093BE058093BF059093C005E09131
:1027F000D205F091D305309759F04091CE05509114
:10280000CF056091D0057091D1058F2D1995F82EC7
:102810000091BB051091BC054F2C512C712C612CE3
:102820000115110509F483C0D8011C96EC901C9782
:102830008091C8059091C9058436910510F41C96C5
:102840001C92D801ED91FC91A280B38019821A826A
:102850001B82FF2079F1F8013696D12CC12C2191F1
:10286000222309F192809920F1F030E050E040E01D
:102870002F5F3F4F4F4F5F4FC301B20159D59B01AF
:10288000AC01892D90E0B0E0A0E0BC01CD016F5F0C
:102890007F4F8F4F9F4F4CD5A1E0B0E0AC0FBD1FD5
:1028A000AC0DBD1D8C93BFEFCB1ADB0A23E0C21623
:1028B000D104A9F6D8011D964D915C911E971296F0
:1028C0006D917C919E012F5F3F4FC801F5011995D5
:1028D000D8011C96EC921C9714960D911C91A0CFD8
:1028E0001092C4051092C3058091C1059091C20554
:1028F00001968C3391052CF49093C2058093C10509
:1029000037CF1092C2051092C105809100029091BC
:1029100001020196883191052CF490930102809375
:10292000000226CF109201021092000221CF809166
:10293000B9059091BA058C010F5F1F4F1093BA052E
:102940000093B9054997ACF10E944202C090B505C9
:10295000D090B605E090B705F090B8059B01AC01AA
:102960002C193D094E095F0921F421E030E040E0D7
:1029700050E0E8EEF3E00E9FB0010F9F700D1E9F38
:10298000700D1124072E000C880B990BA0D43093E6
:10299000C9052093C8051092BA051092B9050E9486
:1029A00042026093B5057093B6058093B705909386
:1029B000B8050E944202E0917906F0917A06A8E1FA
:1029C000BA2E0091790610917A0620917D063091F9
:1029D0007E06B29EC001B39E900D1124800F911F00
:1029E000E817F90779F5E8E14E2EF4E65F2E992411
:1029F000939480917D0690917E06489E9001499E19
:102A0000300D11248091790690917A06820F931FE0
:102A10000817190709F47BC20E944202D8011396D5
:102A20004D915C911497461757074CF452962D918F
:102A30003C915397232B09F02CC155969C92085E2C
:102A40001F4FD7CF6F01C01AD10A960173E0369598
:102A500027957A95E1F74BEA5AE0249FC001259F1C
:102A6000900D349F900D11249F71978B868B8589D3
:102A70007896882309F4A5CFC60163E095958795DC
:102A80006A95E1F76BEA7AEA869F2001879F500CEE
:102A9000969F500C1124712C612C160178E1270EA1
:102AA000311C80917D0690917E067C01A1E0EA1A9E
:102AB000F1080091790610917A064E145F0408F02F
:102AC000BEC0BFEF4B1A5B0A7101E60CF71CE00EAB
:102AD000F11EC601860D971D080F191FF701808191
:102AE000D8018C93818111968C93119782811296D3
:102AF0008C9312978381948114969C938E93139751
:102B00008581968116969C938E93159787819085E3
:102B100018969C938E931797818592851A969C930D
:102B20008E93199783851B968C931B9784851C968F
:102B30008C931C9785851D968C931D97C8010E96C6
:102B40009701225F3F4F8217930709F469C062899A
:102B5000738950962D913C912617370710F40E94E7
:102B6000BD07F80182899389D70152968D909C9078
:102B7000FC018816990608F4F40130E020E02E17D5
:102B80003F07E1F0B901660F771FD7011E964D91FF
:102B90005C91DA01A60FB71F4D915C915D834C8368
:102BA000D8011E964D915C91460F571F6C817D8117
:102BB000DA016D937C932F5F3F4FE1CF8815990524
:102BC00018F59C01220F331FD8011E96ED91FC9140
:102BD000E20FF31F309759F0D7011E964D915C918B
:102BE000DA01A20FB31F4D915C9151834083F8012C
:102BF000428953894F5F5F4F538B428B01962E5F03
:102C00003F4F8816990601F7D70152968D919C91F6
:102C1000F801228933898217930710F4938B828BF2
:102C2000D70155968C915597F801858B56968D91C5
:102C30009C91978B868BF8E16F0E711C32CFE81652
:102C4000F90600F5BE9C8001BF9C100D11244701C0
:102C50008091790690917A0620917D0630917E06CA
:102C60008216930658F4800F911F0E960E94B807A3
:102C70002FEF821A920A085E1F4FEACFF0927E066B
:102C8000E0927D06E0917906F0917A06EC0DFD1D4B
:102C900098CEFB01E41BF50B5E9EC0015F9E900D7C
:102CA000112417966D917C9152D35B01F8018385B5
:102CB00090E0861797070CF0B1C06B01C81AD90ACB
:102CC000F1E0CF1AD108B4E6EB2EF12CE61AF70AA0
:102CD000EC18FD08D7FCA2C0D8011E960D90BC913F
:102CE000A02DBD83AC83F80122893389220F331FC5
:102CF00086859785820F931F2C813D812817390780
:102D000009F484C0D901ED91FD91BD83AC83D80154
:102D10008C901E141F040CF439C0808211968C9183
:102D20001197818312968C91129782831C968C91B5
:102D30001C97811103C055969C92D5CFF8016780EE
:102D400070840E944202D80114967C936E9313976C
:102D500018967C926E921797660D771D16967C9347
:102D60006E9315972C91220F08F42FEFF801208312
:102D70002181220F08F42FEF11962C9311971296B0
:102D80002C91220F08F42FEF2283ADCF2080312C1D
:102D90004181642E712C228130E012964C9150E0DA
:102DA000421B530B549EC001559E900D1124B70138
:102DB000CED2CB0164E670E0CAD2260F371FD8010D
:102DC00011964C9150E046195709549EC001559EEA
:102DD000900D1124B701BBD2CB0164E670E0B7D2ED
:102DE000660E771E682D70E062197309569EC00149
:102DF000579E900D1124B701AAD2CB0164E670E072
:102E0000A6D2260E371E20826182BECFA386F1E0B5
:102E1000CF1AD1082FEFE21AF20A5CCFA0917906FF
:102E2000B0917A0680917D0690917E06489E1001B1
:102E3000499E300C11242A0E3B1EF8018585811114
:102E4000FECD95862A163B0609F4F9CD56962D91AE
:102E50003C915797F801868997892817390709F413
:102E600054C01D968C911D97882309F44EC0868509
:102E7000978562887388660C771C680E791E6816C1
:102E8000790609F442C0FC01A190B190CF011E96D1
:102E90002D913C911F9752964D915C915397BA0199
:102EA000660F771FFB01E20FF31FFD83EC83F9012F
:102EB0006C817D816E177F0711F36F0172E0C70E81
:102EC000D11CE080F180AE14BF04A1F4E21BF30B2F
:102ED000BF0175956795E20FF31F9A0121503109E3
:102EE0006217730748F46F5F7F4FE280F380E192CF
:102EF000F192F6CFF601DCCF2417350708F0BFCFEB
:102F000053963C932E935297BACF58969BCF0E94DC
:102F1000ED0108CC0F931F93CF93DF93D0E0C0E077
:102F200010E000E080918006909181062091840657
:102F3000309185060217130750F48C0F9D1FFC017A
:102F4000808191812AD10F5F1F4F2796EBCF25D12A
:102F5000D0E0C0E010E000E08091790690917A0620
:102F600020917D0630917E060217130748F48C0FDE
:102F70009D1F0E960E94B8070F5F1F4F6896ECCFFB
:102F80000CD181EB96E00E94DD0387E896E0DF91AB
:102F9000CF911F910F910C9423040F931F93CF9304
:102FA000DF93009759F46115710541F4F0E0E0E01A
:102FB000CF01DF91CF911F910F9108958B01EC010B
:102FC0006EE070E081E090E032D0FC01892B71F37B
:102FD00080E883830115110571F01387028781E86A
:102FE00083838091DF069091E006892B21F4F09392
:102FF000E006E093DF062097D9F2D187C08783816E
:10300000826083838091E1069091E206892B81F6AC
:10301000F093E206E093E1068091E3069091E406E6
:10302000892B31F6F093E406E093E306C1CF0F93CA
:103030001F93CF93DF93869F8001879F100D969FEC
:10304000100D1124C8010DD0EC01009721F0A8014A
:1030500070E060E02BD1CE01DF91CF911F910F91F5
:1030600008950F931F93CF93DF938230910510F44F
:1030700082E090E0E091E706F091E80630E020E0A1
:10308000B0E0A0E0309799F42115310509F44AC069
:10309000281B390B24303105D8F58A819B816115B5
:1030A000710589F1FB0193838283FE0111C0408188
:1030B00051810281138148175907E0F048175907D9
:1030C00099F4109761F012960C93129713961C9333
:1030D0003296CF01DF91CF911F910F910895009308
:1030E000E7061093E806F4CF2115310551F0421799
:1030F000530738F0A901DB019A01BD01DF01F80196
:10310000C1CFEF01F9CF9093E8068093E706CDCFCA
:10311000FE01E20FF31F819391932250310939830D
:103120002883D7CF2091E5063091E606232B41F482
:1031300020910402309105023093E6062093E506C3
:1031400020910202309103022115310541F42DB77F
:103150003EB74091060250910702241B350BE091C7
:10316000E506F091E606E217F307A0F42E1B3F0BED
:103170002817390778F0AC014E5F5F4F24173507E9
:1031800048F04E0F5F1F5093E6064093E50681938B
:1031900091939FCFF0E0E0E09CCFCF93DF93009737
:1031A000E9F0FC01329713821282A091E706B091F8
:1031B000E806ED0130E020E01097A1F42081318194
:1031C000820F931F2091E5063091E60628173907F4
:1031D00009F061C0F093E606E093E506DF91CF9138
:1031E0000895EA01CE17DF07E8F54A815B819E0169
:1031F00041155105B1F7E901FB83EA8349915991E2
:10320000C40FD51FEC17FD0761F4808191810296F0
:10321000840F951FE90199838883828193819B8321
:103220008A83F0E0E0E012968D919C9113970097CD
:10323000B9F52D913C911197CD010296820F931F04
:103240002091E5063091E6062817390739F63097C0
:1032500051F51092E8061092E706B093E606A093A7
:10326000E506BCCFD383C28340815181840F951F73
:10327000C817D90761F44E5F5F4F88819981480F65
:10328000591F518340838A819B81938382832115B7
:10329000310509F0B0CFF093E806E093E7069ECF42
:1032A000FD01DC01C0CF13821282D7CFDC0101C047
:1032B0006D9341505040E0F708952BD0A59F900D9D
:1032C000B49F900DA49F800D911D11240895A1E23B
:1032D0001A2EAA1BBB1BFD010DC0AA1FBB1FEE1F90
:1032E000FF1FA217B307E407F50720F0A21BB30BDB
:1032F000E40BF50B661F771F881F991F1A9469F757
:1033000060957095809590959B01AC01BD01CF01B2
:103310000895A29FB001B39FC001A39F700D811DAE
:103320001124911DB29F700D811D1124911D0895CE
:10333000DB018F939F93C1DFBF91AF91A29F800D5F
:10334000911DA39F900DB29F900D1124089597FB9E
:10335000072E16F4009406D077FD08D011D007FC94
:1033600005D03EF4909581959F4F08957095619595
:103370007F4F0895CEDFB7FF0895821B930B08950A
:10338000AA1BBB1B51E107C0AA1FBB1FA617B7078B
:1033900010F0A61BB70B881F991F5A95A9F78095A7
:1033A0009095BC01CD010895EE0FFF1F881F8BBFC4
:1033B0000790F691E02D199481E090E0F89400C018
:1033C00010E0C3E7D0E000E005C0802FFE01ECDF95
:1033D0002196011DC437D10780E00807B1F7F894A2
:0233E000FFCF1D
:1033E20008000000E906800018000000000000004C
:1033F2000000E8FFE8FF00000000000014000000E9
:10340200000000000000ECFFECFF000000000000E4
:10341200000000003804B60700000000F203A9070C
:10342200AB03A803A503A203C80297035C034303EB
:103432002A034E02ED02CB02020000000000050446
:10344200AB07FEFFFEFF0000F303AD07060000001E
:103452000000BF039E07FAFFFAFF0000AD03A007BA
:103462008E020E0218029802180000000000DD030E
:103472008A07E8FFE8FF0000E9039307AA02220295
:103482002C02B40214000000000023047807ECFFB1
:10349200ECFF00002F04810700000000650F650F9C
:1034A200650F550751074E07000000000C07C906BB
:1034B200C70655075107E3007604000000008201A9
:0C34C200ED001A01CE014B0129013D0173
:00000001FF
