:100000000C9436000C945E000C945E000C945E0020
:100010000C945E000C945E000C945E000C945E00E8
:100020000C945E000C945E000C945E000C945E00D8
:100030000C945E000C945E000C945E000C945E00C8
:100040000C94460D0C945E000C945E000C945E00C3
:100050000C945E000C945E000C945E000C945E00A8
:100060000C945E000C945E00CE0E7A1111241FBE1B
:10007000CFEFD8E0DEBFCDBF11E0A0E0B1E0EAEF06
:10008000F6E202C005900D92A832B107D9F721E03F
:10009000A8E2B1E001C01D92A637B207E1F710E077
:1000A000C5E3D0E004C02197FE010E942912C433A9
:1000B000D107C9F70E944F0F0C9470130C940000E5
:1000C00080E090E00895FC01858596850895CF93A2
:1000D000DF9300D000D000D0CDB7DEB7AB011C82DB
:1000E0001D821E82DC01ED91FC910190F081E02DDA
:1000F00019821A821B829E012F5F3F4FBE016C5FE7
:100100007F4F099526960FB6F894DEBF0FBECDBF80
:10011000DF91CF910895CF92DF92EF92FF920F93EC
:100120001F93CF93DF9300D0CDB7DEB78C017B0157
:1001300088E090E0F801938382831582148280E145
:1001400090E00E943E12F801918380838FEF8783B5
:100150008087118613861286F701C080D180E480E3
:10016000F580EE0CFF1CEC0CFD1CCE14DF0469F0D6
:10017000F601819191916F019A838983BE016F5F2E
:100180007F4FC8010E945C0EF0CF0F900F90DF915F
:10019000CF911F910F91FF90EF90DF90CF90089536
:1001A0006F927F928F929F92AF92BF92CF92DF9287
:1001B000EF92FF920F931F93CF93DF9300D0CDB7B1
:1001C000DEB77C015B016A01890188E090E0F701FC
:1001D000938382831582148280E190E00E943E1214
:1001E000F70191838083C60101973C01C016D106B7
:1001F0000CF5A601440F551FC40ED51E20E030E0BB
:100200004901E3E08E0E911C6016710681F12350C6
:1002100031092C0D3D1D2A0D3B1D3A832983BE015A
:100220006F5F7F4FC7010E945C0E9FEF691A790ACA
:100230009401E6CF4801880C991C800E911EC12CB8
:10024000D12C01501109F3E0CF1AD108061517057A
:1002500074F0C4018C0D9D1D8A0D9B1D9A838983AA
:10026000BE016F5F7F4FC7010E945C0EEACFC701DE
:100270000F900F90DF91CF911F910F91FF90EF9012
:10028000DF90CF90BF90AF909F908F907F906F90B6
:100290000895CF92DF92EF92FF920F931F93CF9327
:1002A000DF93CDB7DEB7C758D1090FB6F894DEBFDC
:1002B0000FBECDBF60912F017091300124ED30E071
:1002C00043ED50E08E010F5F1F4FC8010E94D00028
:1002D0008CE090E00E943E127C01B8010E948B00ED
:1002E00080912D0190912E01CA57DF4FF982E8824B
:1002F000C658D040BE016A577F4F07960E94DD0D59
:10030000C8010E94C90E60912F017091300128ED43
:1003100030E046ED50E0C8010E94D0008CE090E053
:100320000E943E127C01B8010E948B0080912D0139
:1003300090912E01CC57DF4FF982E882C458D0400B
:10034000BE016C577F4F07960E94DD0DC8010E94C9
:10035000C90E60912F017091300121E630E04BE52C
:1003600050E0C8010E94D0008CE090E00E943E1254
:100370007C01B8010E948B0080912D0190912E018B
:10038000CE57DF4FF982E882C258D040BE016E5787
:100390007F4F07960E94DD0DC8010E94C90E609133
:1003A0002F01709130012FE030E04DE050E0C801A6
:1003B0000E94D0008CE090E00E943E127C01B801C7
:1003C0000E948B0080912D0190912E01C058DF4F2B
:1003D000F982E882C058D040BE0160587F4F07962E
:1003E0000E94DD0DC8010E94C90E60912F0170911D
:1003F000300128EB30E045EB50E0C8010E94D0000E
:100400008CE090E00E943E127C01B8010E948B00BB
:1004100080912D0190912E01C258DF4FF982E88220
:10042000CE57D040BE0162587F4F0E960E94DD0D20
:10043000C8010E94C90E60912F01709130012DED0D
:1004400030E04AED50E0C8010E94D0008CE090E01E
:100450000E943E127C01B8010E948B0080912D0108
:1004600090912E01EE96FFAEEEAEEE97BE0164586F
:100470007F4F0E960E94DD0DC8010E94C90E60914B
:100480002F01709130012EEC30E041ED50E0C801B9
:100490000E94D0008CE090E00E943E127C01B801E6
:1004A0000E948B0080912D0190912E01EC96FFAE61
:1004B000EEAEEC97BE0166587F4F0E960E94DD0DA2
:1004C000C8010E94C90E60912F01709130012DEB7F
:1004D00030E04AEB50E0C8010E94D0008CE090E090
:1004E0000E943E127C01B8010E948B0080912D0178
:1004F00090912E01EA96FFAEEEAEEA97BE016858E3
:100500007F4F0E960E94DD0DC8010E94C90E6091BA
:100510002F017091300128EC30E04CEC50E0C80124
:100520000E94D0008CE090E00E943E127C01B80155
:100530000E948B0080912D0190912E01E896FFAED4
:10054000EEAEE897BE016A587F4F0E960E94DD0D11
:10055000C8010E94C90E60912F01709130012EEAEE
:1005600030E042EB50E0C8010E94D0008CE090E007
:100570000E943E127C01B8010E948B0080912D01E7
:1005800090912E01E696FFAEEEAEE697BE016C5856
:100590007F4F0E960E94DD0DC8010E94C90E60912A
:1005A0002F01709130012CE930E047E950E0C8019B
:1005B0000E94D0008CE090E00E943E127C01B801C5
:1005C0000E948B0080912D0190912E01E496FFAE48
:1005D000EEAEE497BE016E587F4F0E960E94DD0D81
:1005E000C8010E94C90E60912F017091300123EC67
:1005F00030E040EC50E0C8010E94D0008CE090E078
:100600000E943E127C01B8010E948B0080912D0156
:1006100090912E01E296FFAEEEAEE297BE016059D8
:100620007F4F0E960E94DD0DC8010E94C90E609199
:100630002F017091300121EE30E04EED50E0C80105
:100640000E94D0008CE090E00E943E127C01B80134
:100650000E948B0080912D0190912E01E096FFAEBB
:10066000EEAEE097BE0162597F4F0E960E94DD0DFF
:10067000C8010E94C90E60912F017091300120EADB
:1006800030E04DE950E0C8010E94D0008CE090E0DD
:100690000E943E127C01B8010E948B0080912D01C6
:1006A00090912E01AE96FFAEEEAEAE97BE016459AC
:1006B0007F4F0E960E94DD0DC8010E94C90E609109
:1006C0002F017091300124EC30E046EC50E0C8017D
:1006D0000E94D0008CE090E00E943E127C01B801A4
:1006E0000E948B0080912D0190912E01AC96FFAE5F
:1006F000EEAEAC97BE0166597F4F0E960E94DD0D9F
:10070000C8010E94C90E60912F017091300128EA42
:1007100030E04DEA50E0C8010E94D0008CE090E04B
:100720000E943E127C01B8010E948B0080912D0135
:1007300090912E01AA96FFAEEEAEAA97BE0168591F
:100740007F4F0E960E94DD0DC8010E94C90E609178
:100750002F017091300122E730E048E750E0C801F6
:100760000E94D0008CE090E00E943E127C01B80113
:100770000E948B0080912D0190912E01A896FFAED2
:10078000EEAEA897BE016A597F4F45960E94DD0DD7
:10079000C8010E94C90E60912F017091300127E8B5
:1007A00030E041E850E0C8010E94D0008CE090E0C9
:1007B0000E943E127C01B8010E948B0080912D01A5
:1007C00090912E01A696FFAEEEAEA697BE016C5993
:1007D0007F4F45960E94DD0DC8010E94C90E6091B1
:1007E0002F01709130012EE830E044E950E0C8015B
:1007F0000E94D0008CE090E00E943E127C01B80183
:100800000E948B0080912D0190912E01A496FFAE45
:10081000EEAEA497BE016E597F4F45960E94DD0D46
:10082000C8010E94C90E60912F017091300120E82B
:1008300030E049E750E0C8010E94D0008CE090E031
:100840000E943E127C01B8010E948B0080912D0114
:1008500090912E01A296FFAEEEAEA297BE01605A15
:100860007F4F45960E94DD0DC8010E94C90E609120
:100870002F01709130012EE830E044E950E0C801CA
:100880000E94D0008CE090E00E943E127C01B801F2
:100890000E948B0080912D0190912E01A096FFAEB9
:1008A000EEAEA097BE01625A7F4F4C960E94DD0DBE
:1008B000C8010E94C90E60912F017091300128E893
:1008C00030E04BE850E0C8010E94D0008CE090E09E
:1008D0000E943E127C01B8010E948B0080912D0184
:1008E00090912E016E96FFAEEEAE6E97BE01645AE9
:1008F0007F4F4C960E94DD0DC8010E94C90E609189
:100900002F017091300125EA30E043EA50E0C80140
:100910000E94D0008CE090E00E943E127C01B80161
:100920000E948B0080912D0190912E016C96FFAE5C
:10093000EEAE6C97BE01665A7F4F83960E94DD0D26
:10094000C8010E94C90E60912F017091300120E111
:1009500030E042E150E0C8010E94D0008CE090E01D
:100960000E943E127C01B8010E948B0080912D01F3
:1009700090912E016A96FFAEEEAE6A97BE01685A5C
:100980007F4F83960E94DD0DC8010E94C90E6091C1
:100990002F017091300129E630E047E650E0C801B0
:1009A0000E94D0008CE090E00E943E127C01B801D1
:1009B0000E948B0080912D0190912E016896FFAED0
:1009C000EEAE6897BE016A5A7F4F8A960E94DD0D8F
:1009D000C8010E94C90E60912F017091300126E676
:1009E00030E043E650E0C8010E94D0008CE090E087
:1009F0000E943E127C01B8010E948B0080912D0163
:100A000090912E016696FFAEEEAE6697BE016C5ACF
:100A10007F4F8A960E94DD0DC8010E94C90E609129
:100A20002F017091300129E330E04CE350E0C80120
:100A30000E94D0008CE090E00E943E127C01B80140
:100A40000E948B0080912D0190912E016496FFAE43
:100A5000EEAE6497BE016E5A7F4FC1960E94DD0DC7
:100A6000C8010E94C90E60912F017091300122E4EB
:100A700030E04FE350E0C8010E94D0008CE090E0ED
:100A80000E943E127C01B8010E948B0080912D01D2
:100A900090912E016296FFAEEEAE6297BE01605B52
:100AA0007F4FC1960E94DD0DC8010E94C90E609162
:100AB0002F017091300124E330E047E350E0C8019A
:100AC0000E94D0008CE090E00E943E127C01B801B0
:100AD0000E948B0080912D0190912E016096FFAEB7
:100AE000EEAE6097BE01625B7F4FC1960E94DD0D46
:100AF000C8010E94C90E60912F017091300127E555
:100B000030E04AE550E0C8010E94D0008CE090E05F
:100B10000E943E127C01B8010E948B0080912D0141
:100B200090912E012E96FFAEEEAE2E97BE01645B25
:100B30007F4FC1960E94DD0DC8010E94C90E6091D1
:100B40002F01709130012CE430E040E550E0C80105
:100B50000E94D0008CE090E00E943E127C01B8011F
:100B60000E948B0080912D0190912E012C96FFAE5A
:100B7000EEAE2C97BE01665B7F4FC1960E94DD0DE5
:100B8000C8010E94C90E60912F01709130012FE2BF
:100B900030E043E350E0C8010E94D0008CE090E0D8
:100BA0000E943E127C01B8010E948B0080912D01B1
:100BB00090912E012A96FFAEEEAE2A97BE01685B99
:100BC0007F4FC1960E94DD0DC8010E94C90E609141
:100BD0002F01709130012BE430E046E450E0C80171
:100BE0000E94D0008CE090E00E943E127C01B8018F
:100BF0000E948B0080912D0190912E012896FFAECE
:100C0000EEAE2897BE016A5B7F4FC1960E94DD0D54
:100C1000C8010E94C90E60912F017091300122E538
:100C200030E045E550E0C8010E94D0008CE090E043
:100C30000E943E127C01B8010E948B0080912D0120
:100C400090912E012696FFAEEEAE2697BE016C5B0C
:100C50007F4FC1960E94DD0DC8010E94C90E6091B0
:100C60002F017091300124E230E041E250E0C801F0
:100C70000E94D0008CE090E00E943E127C01B801FE
:100C80000E948B0080912D0190912E012496FFAE41
:100C9000EEAE2497BE016E5B7F4FC1960E94DD0DC4
:100CA000C8010E94C90E60912F017091300127E1A7
:100CB00030E04AE150E0C8010E94D0008CE090E0B2
:100CC0000E943E127C01B8010E948B0080912D0190
:100CD00090912E012296FFAEEEAE2297BE01605C8F
:100CE0007F4FC1960E94DD0DC8010E94C90E609120
:100CF0002F017091300125E430E043E450E0C80159
:100D00000E94D0008CE090E00E943E127C01B8016D
:100D10000E948B0080912D0190912E01FFAEEEAECE
:100D2000BE01625C7F4FC1960E94DD0DC8010E942A
:100D3000C90E60912F01709130012DE230E048E240
:100D400050E0C8010E94D0008CE090E00E943E126A
:100D50007C01B8010E948B0080912D0190912E01A1
:100D6000FDAEECAEBE01645C7F4FC1960E94DD0D0E
:100D7000C8010E94C90E60912F017091300129E0D5
:100D800030E043E050E0C8010E94D0008CE090E0E9
:100D90000E943E127C01B8010E948B0080912D01BF
:100DA00090912E01FBAEEAAEBE01665C7F4FC89605
:100DB0000E94DD0D7801C8010E94C90E60912F01CB
:100DC0007091300125ED30E045ED50E0C8010E9402
:100DD000D0008CE090E00E943E126C01B8010E94AD
:100DE0008B0080912D0190912E01D9AEC8AEBE012D
:100DF000685C7F4FCF960E94DD0DC8010E94C90E2E
:100E000060912F017091300129ED30E049ED50E003
:100E1000C8010E94D0008CE090E00E943E126C015C
:100E2000B8010E948B0080912D0190912E01DFAAC4
:100E3000CEAABE016A5C7F4FCF960E94DD0DC8012D
:100E40000E94C90E60912F017091300122ED30E0B7
:100E500042ED50E0C8010E94D0008CE090E00E947A
:100E60003E126C01B8010E948B0080912D0190917F
:100E70002E01DDAACCAABE016C5C7F4FCF960E94EA
:100E8000DD0DC8010E94C90E60912F0170913001E3
:100E900028ED30E048ED50E0C8010E94D0008CE021
:100EA00090E00E943E126C01B8010E948B0080917C
:100EB0002D0190912E01DBAACAAABE016E5C7F4F64
:100EC000CF960E94DD0DC8010E94C90E60912F01CE
:100ED0007091300127EC30E047EC50E0C8010E94EF
:100EE000D0008CE090E00E943E126C01B8010E949C
:100EF0008B0080912D0190912E01D9AAC8AABE0124
:100F0000605D7F4FCF960E94DD0DC8010E94C90E23
:100F100060912F017091300129EB30E049EB50E0F6
:100F2000C8010E94D0008CE090E00E943E126C014B
:100F3000B8010E948B0080912D0190912E01DFA6B7
:100F4000CEA6BE01625D7F4FCF960E94DD0DC80127
:100F50000E94C90E60912F01709130012FEB30E09B
:100F60004EEB50E0C8010E94D0008CE090E00E945F
:100F70003E126C01B8010E948B0080912D0190916E
:100F80002E01DDA6CCA6BE01645D7F4FCF960E94E8
:100F9000DD0DC8010E94C90E60912F0170913001D2
:100FA00023EB30E044EB50E0C8010E94D0008CE01D
:100FB00090E00E943E126C01B8010E948B0080916B
:100FC0002D0190912E01DBA6CAA6BE01665D7F4F62
:100FD000CF960E94DD0DC8010E94C90E60912F01BD
:100FE000709130012FEB30E04EEB50E0C8010E94D1
:100FF000D0008CE090E00E943E126C01B8010E948B
:101000008B0080912D0190912E01D9A6C8A6BE011A
:10101000685D7F4FCF960E94DD0DC8010E94C90E0A
:1010200060912F017091300122EA30E041EA50E0F6
:10103000C8010E94D0008CE090E00E943E128C011A
:10104000B7010E948B0080912D0190912E011FA36A
:101050000EA3BE016A5D7F4FCF960E94DD0DC701D2
:101060000E94C90E60912F017091300125E930E096
:1010700046E950E0C7010E94D0008CE090E00E9459
:101080003E128C01B7010E948B0080912D0190913E
:101090002E011DA30CA3BE016C5D7F4FCF960E9455
:1010A000DD0DC7010E94C90E60912F0170913001C2
:1010B0002CE830E04DE850E0C7010E94D0008CE001
:1010C00090E00E943E128C01B7010E948B0080913B
:1010D0002D0190912E011BA30AA3BE016E5D7F4FCF
:1010E000CF960E94DD0DC7010E94C90E60912F01AD
:1010F000709130012AE630E04AE650E0C7010E94D4
:10110000D0008CE090E00E943E128C01B7010E945A
:101110008B0080912D0190912E0119A308A3BE018F
:10112000605E7F4FCF960E94DD0DC7010E94C90E01
:1011300060912F017091300122E630E042E650E0EC
:10114000C7010E94D0008CE090E00E943E128C010A
:10115000B7010E948B0080912D0190912E011F8F6D
:101160000E8FBE01625E7F4FCF960E94DD0DC701DC
:101170000E94C90E60912F017091300126E530E088
:1011800046E550E0C7010E94D0008CE090E00E944C
:101190003E128C01B7010E948B0080912D0190912D
:1011A0002E011D8F0C8FBE01645E7F4FCF960E9473
:1011B000DD0DC7010E94C90E60912F0170913001B1
:1011C00021E530E041E550E0C7010E94D0008CE00D
:1011D00090E00E943E128C01B7010E948B0080912A
:1011E0002D0190912E011B8F0A8FBE01665E7F4FED
:1011F000CF960E94DD0DC7010E94C90E60912F019C
:10120000709130012EE330E04DE350E0C7010E94C1
:10121000D0008CE090E00E943E128C01B7010E9449
:101220008B0080912D0190912E01198F088FBE01A6
:10123000685E7F4FCF960E94DD0DC7010E94C90EE8
:1012400060912F017091300128E330E048E350E0D5
:10125000C7010E94D0008CE090E00E943E128C01F9
:10126000B7010E948B0080912D0190912E011F8B60
:101270000E8BBE016A5E7F4FCF960E94DD0DC701C7
:101280000E94C90E60912F01709130012EE230E072
:101290004EE250E0C7010E94D0008CE090E00E9436
:1012A0003E128C01B7010E948B0080912D0190911C
:1012B0002E011D8B0C8BBE016C5E7F4FCF960E9462
:1012C000DD0DC7010E94C90E60912F0170913001A0
:1012D00020E230E04FE150E0C7010E94D0008CE0F6
:1012E00090E00E943E128C01B7010E948B00809119
:1012F0002D0190912E011B8B0A8BBE016E5E7F4FDC
:10130000CF960E94DD0DC7010E94C90E60912F018A
:101310007091300127E230E045E250E0C7010E94C1
:10132000D0008CE090E00E943E128C01B7010E9438
:101330008B0080912D0190912E01198B088BBE019D
:10134000605F7F4FCF960E94DD0DC7010E94C90EDE
:1013500060912F01709130012BE130E04EE150E0BF
:10136000C7010E94D0008CE090E00E943E128C01E8
:10137000B7010E948B0080912D0190912E011F8753
:101380000E87BE01625F7F4FCF960E94DD0DC701C1
:101390000E94C90E60912F017091300123E130E06D
:1013A00046E150E0C7010E94D0008CE090E00E942E
:1013B0003E128C01B7010E948B0080912D0190910B
:1013C0002E011D870C87BE01645F7F4FCF960E9460
:1013D000DD0DC7010E94C90E60912F01709130018F
:1013E00022E030E041E050E0C7010E94D0008CE0F4
:1013F00090E00E943E128C01B7010E948B00809108
:101400002D0190912E011B870A87BE01665F7F4FD9
:10141000CF960E94DD0DC7010E94C90E60912F0179
:10142000709130012CE030E04AE050E0C7010E94AA
:10143000D0008CE090E00E943E128C01B7010E9427
:101440008B0080912D0190912E0119870887BE0194
:10145000685F7F4FCF960E94DD0DC7010E94C90EC5
:10146000C957DF4F0FB6F894DEBF0FBECDBFDF9177
:10147000CF911F910F91FF90EF90DF90CF90089543
:1014800080E991E00895569A08954F925F926F9285
:101490007F928F92AF92BF92CF92EF92FF920F9373
:1014A0001F93CF93DF933C01EB010E94210DF301C9
:1014B00027853089621B730B6A307105B0F3F8948D
:1014C000E881F9815BB150648BB18F7B8BB96A8500
:1014D0009F81262F291B922F2F83BF844A805B80F8
:1014E0007D85FC84EE847F5FF394E3943E814885A0
:1014F000A984CB841181D20120E0C32F022F322F87
:101500003181112788943111390F08F43FEF9195FB
:10151000889470FD130F1795889471FD130F17951C
:10152000889472FD130F1795889473FD130F179508
:10153000889474FD130F1795889475FD130F1795F4
:10154000889476FD130F1795889477FD130F1795E0
:101550008894232F7111212F960F122F002C5BB925
:1015600000C017FF8BB930812227889400C000C0CB
:10157000002C8BB931113C0F00C0002C5BB900C0AE
:1015800016FF8BB908F43FEFC195889400C000C0E6
:10159000002C8BB9F0FC230F00C0002C5BB900C0FD
:1015A00015FF8BB927958894F1FC230F00C000C06C
:1015B000002C8BB92795889400C0002C5BB900C023
:1015C00014FF8BB9F2FC230F2795889400C000C04C
:1015D000002C8BB9F3FC230F00C0002C5BB900C0BA
:1015E00013FF8BB927958894F4FC230F00C000C02B
:1015F000002C8BB92795889400C0002C5BB900C0E3
:1016000012FF8BB9F5FC230F2795889400C000C00A
:10161000002C8BB9F6FC230F00C0002C5BB900C076
:1016200011FF8BB927958894F7FC230F00C000C0E9
:10163000002C8BB92795889400C0002C5BB900C0A2
:1016400010FF8BB9132FF110122FCA0D00C000C06C
:10165000002C8BB900C000C0002C5BB900C017FF84
:101660008BB932812227889400C000C0002C8BB92E
:101670003111340F00C0002C5BB900C016FF8BB9CC
:1016800008F43FEFEB0DF11D00C000C0002C8BB93A
:10169000E0FC230F00C0002C5BB900C015FF8BB924
:1016A00027958894E1FC230F00C000C0002C8BB963
:1016B0002795889400C0002C5BB900C014FF8BB93B
:1016C000E2FC230F2795889400C000C0002C8BB942
:1016D000E3FC230F00C0002C5BB900C013FF8BB9E3
:1016E00027958894E4FC230F00C000C0002C8BB920
:1016F0002795889400C0002C5BB900C012FF8BB9FD
:10170000E5FC230F2795889400C000C0002C8BB9FE
:10171000E6FC230F00C0002C5BB900C011FF8BB9A1
:1017200027958894E7FC230F00C000C0002C8BB9DC
:101730002795889400C0002C5BB900C010FF8BB9BE
:10174000132FE110122F419500C000C0002C8BB95F
:101750004C0D00C000C05BB900C017FF8BB93181D0
:101760002227889400C000C0002C8BB93111390F9A
:1017700000C0002C5BB900C016FF8BB908F43FEF26
:101780009195889400C000C0002C8BB970FD230F88
:1017900000C0002C5BB900C015FF8BB92795889459
:1017A00071FD230F00C000C0002C8BB927958894D1
:1017B00000C0002C5BB900C014FF8BB972FD230F71
:1017C0002795889400C000C0002C8BB973FD230FAF
:1017D00000C0002C5BB900C013FF8BB9279588941B
:1017E00074FD230F00C000C0002C8BB9279588948E
:1017F00000C0002C5BB900C012FF8BB975FD230F30
:101800002795889400C000C0002C8BB976FD230F6B
:1018100000C0002C5BB900C011FF8BB927958894DC
:1018200077FD230F00C000C0002C8BB9279588944A
:1018300000C0002C5BB900C010FF8BB9132F7111D1
:10184000122F960F00C000C0002C8BB9119709F021
:1018500086CE20EE31E0D2010E940312DC01CB01E2
:10186000F4E0B695A79597958795FA95D1F720E07E
:1018700030E0A9016AE9469E040C411D569E400DC8
:10188000511D1124450D511D840F951FA11DB11D22
:10189000893E43E09407A105B10508F434C0885E91
:1018A0009340A109B10942E0B695A7959795879510
:1018B0004A95D1F747E0849F080E211D949F200D83
:1018C000311D1124290F311D6091280170E0860F10
:1018D000971F820F931F4091290150912A01609117
:1018E0002B0170912C01292F3327420F531F611DAB
:1018F000711D4093290150932A0160932B0170932D
:101900002C018093280178940E94210DF301708BA3
:101910006787DF91CF911F910F91FF90EF90CF904C
:10192000BF90AF908F907F906F905F904F90089591
:101930000F931F93CF93DF93CDB7DEB762970FB6A8
:10194000F894DEBF0FBECDBF8C01F901DC011C96FF
:101950008C917A8369835C834B835E834D83908112
:101960009D8791819E8792819F87813029F4CE0146
:1019700001960E94900D06C01C861B861A86198649
:1019800018861F82188A1A8A198AD801ED91FC914B
:101990000484F585E02DBE016F5F7F4FC801099576
:1019A00062960FB6F894DEBF0FBECDBFDF91CF9128
:1019B0001F910F9108950F931F93CF93DF93CDB78E
:1019C000DEB762970FB6F894DEBF0FBECDBF8C01B5
:1019D000F901DC011C968C917A8369835C834B83CB
:1019E0005E834D8390819D8791819E8792819F87A1
:1019F000813029F4CE0101960E94900D06C01C860C
:101A00001B861A86198618861F8283E0888B1A8A9D
:101A1000198AD801ED91FC910484F585E02DBE0171
:101A20006F5F7F4FC801099562960FB6F894DEBFCD
:101A30000FBECDBFDF91CF911F910F9108950E94EE
:101A40006B133FB7F8948091330190913401A091CA
:101A50003501B091360126B5A89B05C02F3F19F07E
:101A60000196A11DB11D3FBFBA2FA92F982F88271E
:101A7000820F911DA11DB11DBC01CD0142E0660F79
:101A8000771F881F991F4A95D1F708951F920F92CB
:101A90000FB60F9211242F933F938F939F93AF9381
:101AA000BF938091290190912A01A0912B01B091BF
:101AB0002C013091320123E0230F2D3720F40196C1
:101AC000A11DB11D05C026E8230F0296A11DB11D61
:101AD000209332018093290190932A01A0932B0136
:101AE000B0932C018091330190913401A091350184
:101AF000B09136010196A11DB11D809333019093E1
:101B00003401A0933501B0933601BF91AF919F91FD
:101B10008F913F912F910F900FBE0F901F901895AE
:101B2000EF92FF920F931F93CF93DF93EC0190916D
:101B300031019F5F292F27702093310190FF02C050
:101B400090E801C090E021FD9064247009F090625B
:101B500020E1290FFE013C967E018FE0E80EF11C8A
:101B600000E011E06191662331F070E0C8010E944D
:101B7000AE116F5F01C060E0DF0114976C93322FEC
:101B8000369F030E30E0311D1124CF01079731112C
:101B900003C0EC01188203C03150EC013883662386
:101BA00011F061506C93EE15FF05E1F6DF91CF91D6
:101BB0001F910F91FF90EF900895AF92BF92CF9237
:101BC000DF92EF92FF920F931F93CF93DF93EC017D
:101BD000CC80DD8086010F5F1F4FC016D10608F054
:101BE00049C07B018A819B818017910760F596012E
:101BF000275F3F4F8217930730F5A880B9803B835A
:101C00002A83C901880F991F0E943E1299838883F5
:101C1000D50140E050E04C155D0591F0E881F98177
:101C20009A01220F331FE20FF31F309729F08D9195
:101C30009C911197918380834F5F5F4F1296EBCFFA
:101C4000C5010E94D3128C819D819C01220F331FFC
:101C50008017910790F4E881F981E20FF31F309724
:101C600029F0D7014D915C915183408301962E5FFD
:101C70003F4FEECF0C151D0510F41D830C83DF9133
:101C8000CF911F910F91FF90EF90DF90CF90BF9079
:101C9000AF900895CF93DF93EC0188E090E09B83B1
:101CA0008A831D821C8280E190E00E943E1299830B
:101CB0008883DF91CF910895AF92BF92CF92DF9248
:101CC000EF92FF920F931F93CF93DF93EC01CC80A1
:101CD000DD8086010F5F1F4FC016D10608F049C096
:101CE0007B018A819B818017910760F59601275FB0
:101CF0003F4F8217930730F5A880B9803B832A8332
:101D0000C901880F991F0E943E1299838883D501CB
:101D100040E050E04C155D0591F0E881F9819A01B1
:101D2000220F331FE20FF31F309729F08D919C9102
:101D30001197918380834F5F5F4F1296EBCFC50160
:101D40000E94D3128C819D819C01220F331F80172A
:101D5000910790F4E881F981E20FF31F309729F0A1
:101D6000D7014D915C915183408301962E5F3F4F87
:101D7000EECF0C151D0510F41D830C83DF91CF9160
:101D80001F910F91FF90EF90DF90CF90BF90AF9099
:101D90000895FC01808191810C94D3120F931F93BD
:101DA000CF93DF931F92CDB7DEB7EEE5F1E08FEF73
:101DB000808312821182148613868FEF9FEFDC01DD
:101DC00087839087A187B28783EA92E00E943E12C0
:101DD0009093300180932F0186E490E00E943E12A0
:101DE0008C01BE016F5F7F4F0E944A0EBE016F5F84
:101DF0007F4FC80107960E944A0EBE016F5F7F4F5A
:101E0000C8010E960E944A0EBE016F5F7F4FC80147
:101E100045960E944A0EBE016F5F7F4FC8014C96E7
:101E20000E944A0EBE016F5F7F4FC80183960E94D9
:101E30004A0EBE016F5F7F4FC8018A960E944A0E0C
:101E4000BE016F5F7F4FC801C1960E944A0EBE015E
:101E50006F5F7F4FC801C8960E944A0EBE016F5F38
:101E60007F4FC801CF960E944A0E10932E01009317
:101E70002D010BE611E088E090E0F8019383828366
:101E80001582148288E390E00E943E12F80191834B
:101E900080830F90DF91CF911F910F910895CF9381
:101EA000DF9300D01F92CDB7DEB7789484B58260FF
:101EB00084BD84B5816084BD85B5826085BD85B5EE
:101EC000816085BD80916E00816080936E0010926C
:101ED00081008091810082608093810080918100E7
:101EE0008160809381008091800081608093800078
:101EF0008091B10084608093B1008091B0008160D6
:101F00008093B00080917A00846080937A00809101
:101F10007A00826080937A0080917A008160809359
:101F20007A0080917A00806880937A001092C100D4
:101F30000E94210D4B015C0184E6C82ED12CE12CBE
:101F4000F12C0E94210DDC01CB0188199909AA0905
:101F5000BB09883E9340A105B10558F021E0C21AA3
:101F6000D108E108F10888EE880E83E0981EA11CD4
:101F7000B11CC114D104E104F10419F700912F013F
:101F80001091300180914A01811145C010923C01AD
:101F900010923B018FEF80933F018093400180932B
:101FA000410180934201809343018093440181E089
:101FB00080934501109247011092460110923E0114
:101FC00010923D018091580190915901892B31F473
:101FD00089E391E09093590180935801E091370192
:101FE000F0913801309721F089E391E09583848363
:101FF00089E391E090933801809337011092490171
:10200000109248018AE191E090933A01809339015E
:1020100081E080934A01E0913901F0913A01048016
:10202000F581E02D89E391E0099510933C0100933F
:102030003B0181EE90E09093470180934601E0914F
:102040003901F0913A010284F385E02D89E391E0B2
:102050000995009729F19C0140E050E060E472E4AA
:102060008FE090E00E94E411722F632F00916101D4
:10207000109162012091630130916401872F962FA6
:10208000DA0180179107A207B30710F4D901C8013C
:102090008093610190936201A0936301B093640106
:1020A0000E94490180912F0190913001FC013296EC
:1020B0008B559D4F2FEFDF0112972C9311962C9388
:1020C00020833396E817F907B1F7F0905E0180910D
:1020D000610190916201A0916301B0916401892B2B
:1020E0008A2B8B2BE9F00E94210D00915A0110914F
:1020F0005B0120915C0130915D01DC01CB01801B13
:10210000910BA20BB30B0091610110916201209120
:1021100063013091640180179107A207B307B8F2F9
:102120000E94210D60935A0170935B0180935C01C2
:1021300090935D01E0916901F0916A01309759F047
:10214000409165015091660160916701709168014D
:102150008F2D0995F82E00915801109159014F2C9F
:10216000512C612C712C0115110509F461C0D801A5
:102170001C96EC901C9780915F01909160018436D1
:10218000910510F41C961C92D801ED91FC91A2804F
:10219000B38019821A821B82F11014C0F8014585A0
:1021A0005685628173819E012F5F3F4FC801F50103
:1021B0000995D8011C96EC921C9714960D911C91D0
:1021C0001597D1CFF8013996CE0101966C014801DF
:1021D0009CE0890E911CDF0113973C9021913320E4
:1021E00001F12223F1F0822F90E0A0E0B0E09C0109
:1021F000AD012F5F3F4F4F4F5F4FC301B2010E94B0
:102200009E119B01AC01832D90E0A0E0B0E0BC01E9
:10221000CD016F5F7F4F8F4F9F4F0E949E11D60160
:102220008C93BFEFCB1ADB0AE815F905A1F6B6CF00
:1022300080915601909157019C012F5F3F4F309341
:1022400057012093560149970CF44CC08FB7F8946E
:102250004091290150912A0160912B0170912C012C
:102260008FBF8091520190915301A0915401B09180
:1022700055019A01AB01281B390B4A0B5B0B21F46A
:1022800021E030E040E050E0E0915601F09157014C
:1022900088EE93E0E89FB001E99F700DF89F700D04
:1022A0001124072E000C880B990B0E94C211309349
:1022B000600120935F0110925701109256012FB7D1
:1022C000F8948091290190912A01A0912B01B0915D
:1022D0002C012FBF8093520190935301A09354017E
:1022E000B093550100E010E001151105E9F30E94DB
:1022F0000000FACF0F931F93CF93DF9300E010E01D
:10230000C0E0D0E020916F013091700180916B01AD
:1023100090916C01C217D30758F4FC01E00FF11F34
:10232000808191810E94D3122196095F1F4FEACFCD
:10233000DF91CF911F910F910C94D312DB018F93FA
:102340009F930E940A12BF91AF91A29F800D911D91
:10235000A39F900DB29F900D1124089597FB072E17
:1023600016F4009407D077FD09D00E94151207FCDF
:1023700005D03EF4909581959F4F08957095619595
:102380007F4F0895A1E21A2EAA1BBB1BFD010DC0B1
:10239000AA1FBB1FEE1FFF1FA217B307E407F50715
:1023A00020F0A21BB30BE40BF50B661F771F881FF1
:1023B000991F1A9469F760957095809590959B0187
:1023C000AC01BD01CF010895052E97FB1EF40094CA
:1023D0000E94FB1157FD07D00E94C21107FC03D0D9
:1023E0004EF40C94FB1150954095309521953F4F3C
:1023F0004F4F5F4F089590958095709561957F4FF1
:102400008F4F9F4F08950E942F12B7FF0895821B90
:10241000930B08950E942F12A59F900DB49F900DCD
:10242000A49F800D911D11240895AA1BBB1B51E18F
:1024300007C0AA1FBB1FA617B70710F0A61BB70B34
:10244000881F991F5A95A9F780959095BC01CD01D9
:102450000895EE0FFF1F0590F491E02D0994A29FBF
:10246000B001B39FC001A39F700D811D1124911D68
:10247000B29F700D811D1124911D0895CF93DF939C
:102480008230910510F482E090E0E0917401F091C7
:10249000750120E030E0C0E0D0E0309711F14081DC
:1024A000518148175907C0F04817590761F48281D4
:1024B0009381209719F09B838A832BC09093750199
:1024C0008093740126C02115310519F04217530776
:1024D00018F49A01BE01DF01EF010280F381E02DC3
:1024E000DCCF2115310509F1281B390B24303105CA
:1024F00090F412968D919C9113976115710521F0BE
:10250000FB019383828304C09093750180937401CF
:10251000FD01329644C0FD01E20FF31F81939193B8
:10252000225031092D933C933AC020917201309191
:102530007301232B41F42091020130910301309368
:102540007301209372012091000130910101211546
:10255000310541F42DB73EB740910401509105017A
:10256000241B350BE0917201F0917301E217F30720
:10257000A0F42E1B3F0B2817390778F0AC014E5FF3
:102580005F4F2417350748F04E0F5F1F50937301BC
:10259000409372018193919302C0E0E0F0E0CF019B
:1025A000DF91CF9108950F931F93CF93DF930097FF
:1025B00009F48CC0FC0132971382128200917401DD
:1025C000109175010115110581F420813181820F6F
:1025D000931F20917201309173012817390779F503
:1025E000F0937301E093720171C0D80140E050E0B4
:1025F000AE17BF0750F412962D913C911397AD0181
:102600002115310509F1D901F3CF9D01DA01338399
:10261000228360817181860F971F8217930769F467
:10262000EC0128813981260F371F2E5F3F4F318300
:1026300020838A819B8193838283452B29F4F093A5
:102640007501E093740142C01396FC93EE931297C8
:10265000ED01499159919E01240F351FE217F307AF
:1026600071F480819181840F951F029611969C933D
:102670008E938281938113969C938E931297E0E0C0
:10268000F0E0D80112968D919C911397009719F064
:10269000F8018C01F6CF8D919C9198012E5F3F4FF0
:1026A000820F931F2091720130917301281739070F
:1026B00069F4309729F4109275011092740102C0E8
:1026C000138212821093730100937201DF91CF91F4
:1026D0001F910F91089581E090E0F8940C9470138D
:1026E00010E0C5E3D0E004C0FE010E94291221964B
:0A26F000C633D107C9F7F894FFCFF5
:1026FA00000076018000000000001F0D1F0D1F0D55
:10270A0067006300600000000000980CDB0C430ABD
:08271A0067006300400A450A54
:107E0000112484B714BE81FFF0D085E080938100F7
:107E100082E08093C00088E18093C10086E0809377
:107E2000C20080E18093C4008EE0C9D0259A86E02C
:107E300020E33CEF91E0309385002093840096BBD3
:107E4000B09BFECF1D9AA8958150A9F7CC24DD24C4
:107E500088248394B5E0AB2EA1E19A2EF3E0BF2EE7
:107E6000A2D0813461F49FD0082FAFD0023811F036
:107E7000013811F484E001C083E08DD089C08234E0
:107E800011F484E103C0853419F485E0A6D080C0E4
:107E9000853579F488D0E82EFF2485D0082F10E0AE
:107EA000102F00270E291F29000F111F8ED06801E7
:107EB0006FC0863521F484E090D080E0DECF843638
:107EC00009F040C070D06FD0082F6DD080E0C81688
:107ED00080E7D80618F4F601B7BEE895C0E0D1E017
:107EE00062D089930C17E1F7F0E0CF16F0E7DF06D8
:107EF00018F0F601B7BEE89568D007B600FCFDCFD4
:107F0000A601A0E0B1E02C9130E011968C91119780
:107F100090E0982F8827822B932B1296FA010C0160
:107F200087BEE89511244E5F5F4FF1E0A038BF0790
:107F300051F7F601A7BEE89507B600FCFDCF97BE46
:107F4000E89526C08437B1F42ED02DD0F82E2BD052
:107F50003CD0F601EF2C8F010F5F1F4F84911BD097
:107F6000EA94F801C1F70894C11CD11CFA94CF0C13
:107F7000D11C0EC0853739F428D08EE10CD085E9AC
:107F80000AD08FE07ACF813511F488E018D01DD067
:107F900080E101D065CF982F8091C00085FFFCCF94
:107FA0009093C60008958091C00087FFFCCF809118
:107FB000C00084FD01C0A8958091C6000895E0E648
:107FC000F0E098E1908380830895EDDF803219F02E
:107FD00088E0F5DFFFCF84E1DECF1F93182FE3DFCA
:107FE0001150E9F7F2DF1F91089580E0E8DFEE27F6
:047FF000FF270994CA
:027FFE00040479
:0400000300007E007B
:00000001FF
