:100000000C9436000C945E000C945E000C945E0020
:100010000C945E000C945E000C945E000C945E00E8
:100020000C945E000C945E000C945E000C945E00D8
:100030000C945E000C945E000C945E000C945E00C8
:100040000C94DE0D0C945E000C941E0D0C94F80CB8
:100050000C945E000C945E000C945E000C945E00A8
:100060000C945E000C945E00750E511111241FBE9D
:10007000CFEFD8E0DEBFCDBF11E0A0E0B1E0E8EF08
:10008000F6E202C005900D92A234B107D9F725E03F
:10009000A2E4B1E001C01D92A231B207E1F710E085
:1000A000C5E3D0E004C02197FE010E942812C433AA
:1000B000D107C9F70E94130F0C946F130C94000022
:1000C00080E090E00895FC01858596850895CF93A2
:1000D000DF9300D000D000D0CDB7DEB7AB011C82DB
:1000E0001D821E82DC01ED91FC910190F081E02DDA
:1000F00019821A821B829E012F5F3F4FBE016C5FE7
:100100007F4F099526960FB6F894DEBF0FBECDBF80
:10011000DF91CF910895AF92BF92CF92DF92EF928D
:10012000FF920F931F93CF93DF93EC01CC80DD8080
:1001300086010F5F1F4FC016D10608F049C07B0132
:100140008A819B818017910760F59601275F3F4F59
:100150008217930730F5A880B9803B832A83C901B1
:10016000880F991F0E943D1299838883D50140E032
:1001700050E04C155D0591F0E881F9819A01220F5C
:10018000331FE20FF31F309729F08D919C91119747
:10019000918380834F5F5F4F1296EBCFC5010E9422
:1001A000D2128C819D819C01220F331F80179107F1
:1001B00090F4E881F981E20FF31F309729F0D7011D
:1001C0004D915C915183408301962E5F3F4FEECF5E
:1001D0000C151D0510F41D830C83DF91CF911F9129
:1001E0000F91FF90EF90DF90CF90BF90AF90089568
:1001F000FC01808191810C94D212FC01808191815B
:100200000C94D212CF93DF93EC0188E090E09B83B3
:100210008A831D821C8280E190E00E943D129983B6
:100220008883DF91CF910895AF92BF92CF92DF92F2
:10023000EF92FF920F931F93CF93DF93EC01CC804B
:10024000DD8086010F5F1F4FC016D10608F049C040
:100250007B018A819B818017910760F59601275F5A
:100260003F4F8217930730F5A880B9803B832A83DC
:10027000C901880F991F0E943D1299838883D50177
:1002800040E050E04C155D0591F0E881F9819A015C
:10029000220F331FE20FF31F309729F08D919C91AD
:1002A0001197918380834F5F5F4F1296EBCFC5010B
:1002B0000E94D2128C819D819C01220F331F8017D6
:1002C000910790F4E881F981E20FF31F309729F04C
:1002D000D7014D915C915183408301962E5F3F4F32
:1002E000EECF0C151D0510F41D830C83DF91CF910B
:1002F0001F910F91FF90EF90DF90CF90BF90AF9044
:100300000895CF92DF92EF92FF920F931F93CF93B6
:10031000DF9300D0CDB7DEB78C017B0188E090E0A1
:10032000F801938382831582148280E190E00E9419
:100330003D12F801918380838FEF87838087118638
:1003400013861286F701C080D180E480F580EE0C20
:10035000FF1CEC0CFD1CCE14DF0469F0F60181914A
:1003600091916F019A838983BE016F5F7F4FC801AE
:100370000E941401F0CF0F900F90DF91CF911F9149
:100380000F91FF90EF90DF90CF900895CF92DF9282
:10039000EF92FF920F931F93CF93DF93CDB7DEB70A
:1003A000C758D1090FB6F894DEBF0FBECDBF44EDDC
:1003B00050E063ED70E08E010F5F1F4FC8010E9497
:1003C000860C8CE090E00E943D127C01B8010E94F6
:1003D0008101CA57DF4FF982E882C658D040BE017A
:1003E0006A577F4F88EF93E00E948B00C8010E94FC
:1003F000F80048ED50E066ED70E0C8010E94860C00
:100400008CE090E00E943D127C01B8010E948101C5
:10041000CC57DF4FF982E882C458D040BE016C57F8
:100420007F4F88EF93E00E948B00C8010E94F80084
:1004300041E650E06BE570E0C8010E94860C8CE05C
:1004400090E00E943D127C01B8010E948101CE57CC
:10045000DF4FF982E882C258D040BE016E577F4F0D
:1004600088EF93E00E948B00C8010E94F8004FE0E3
:1004700050E06DE070E0C8010E94860C8CE090E0D6
:100480000E943D127C01B8010E948101C058DF4FDB
:10049000F982E882C058D040BE0160587F4F88EF93
:1004A00093E00E948B00C8010E94F80048EB50E0E6
:1004B00065EB70E0C8010E94860C8CE090E00E9421
:1004C0003D127C01B8010E948101C258DF4FF982C0
:1004D000E882CE57D040BE0162587F4F8FEF93E045
:1004E0000E948B00C8010E94F8004DED50E06AEDBB
:1004F00070E0C8010E94860C8CE090E00E943D12E2
:100500007C01B8010E948101EE96FFAEEEAEEE973F
:10051000BE0164587F4F8FEF93E00E948B00C801AB
:100520000E94F8004EEC50E061ED70E0C8010E94BE
:10053000860C8CE090E00E943D127C01B8010E9484
:100540008101EC96FFAEEEAEEC97BE0166587F4F90
:100550008FEF93E00E948B00C8010E94F8004DEBE2
:1005600050E06AEB70E0C8010E94860C8CE090E0DD
:100570000E943D127C01B8010E948101EA96FFAE03
:10058000EEAEEA97BE0168587F4F8FEF93E00E946E
:100590008B00C8010E94F80048EC50E06CEC70E061
:1005A000C8010E94860C8CE090E00E943D127C0104
:1005B000B8010E948101E896FFAEEEAEE897BE0159
:1005C0006A587F4F8FEF93E00E948B00C8010E9412
:1005D000F8004EEA50E062EB70E0C8010E94860C21
:1005E0008CE090E00E943D127C01B8010E948101E4
:1005F000E696FFAEEEAEE697BE016C587F4F8FEFEA
:1006000093E00E948B00C8010E94F8004CE950E082
:1006100067E970E0C8010E94860C8CE090E00E94BF
:100620003D127C01B8010E948101E496FFAEEEAE5E
:10063000E497BE016E587F4F8FEF93E00E948B00CE
:10064000C8010E94F80043EC50E060EC70E0C80183
:100650000E94860C8CE090E00E943D127C01B80163
:100660000E948101E296FFAEEEAEE297BE016059B4
:100670007F4F8FEF93E00E948B00C8010E94F8002B
:1006800041EE50E06EED70E0C8010E94860C8CE0F7
:1006900090E00E943D127C01B8010E948101E09629
:1006A000FFAEEEAEE097BE0162597F4F8FEF93E051
:1006B0000E948B00C8010E94F80040EA50E06DE9FA
:1006C00070E0C8010E94860C8CE090E00E943D1210
:1006D0007C01B8010E948101AE96FFAEEEAEAE97EE
:1006E000BE0164597F4F8FEF93E00E948B00C801D9
:1006F0000E94F80044EC50E066EC70E0C8010E94F3
:10070000860C8CE090E00E943D127C01B8010E94B2
:100710008101AC96FFAEEEAEAC97BE0166597F4F3D
:100720008FEF93E00E948B00C8010E94F80048EA16
:1007300050E06DEA70E0C8010E94860C8CE090E009
:100740000E943D127C01B8010E948101AA96FFAE71
:10075000EEAEAA97BE0168597F4F8FEF93E00E94DB
:100760008B00C8010E94F80042E750E068E770E0A3
:10077000C8010E94860C8CE090E00E943D127C0132
:10078000B8010E948101A896FFAEEEAEA897BE0107
:100790006A597F4F86E094E00E948B00C8010E9456
:1007A000F80047E850E061E870E0C8010E94860C5C
:1007B0008CE090E00E943D127C01B8010E94810112
:1007C000A696FFAEEEAEA697BE016C597F4F86E0AF
:1007D00094E00E948B00C8010E94F8004EE850E0AF
:1007E00064E970E0C8010E94860C8CE090E00E94F1
:1007F0003D127C01B8010E948101A496FFAEEEAECD
:10080000A497BE016E597F4F86E094E00E948B0052
:10081000C8010E94F80040E850E069E770E0C801B4
:100820000E94860C8CE090E00E943D127C01B80191
:100830000E948101A296FFAEEEAEA297BE01605A61
:100840007F4F86E094E00E948B00C8010E94F80070
:100850004EE850E064E970E0C8010E94860C8CE02C
:1008600090E00E943D127C01B8010E948101A09697
:10087000FFAEEEAEA097BE01625A7F4F8DE094E0CE
:100880000E948B00C8010E94F80048E850E06BE825
:1008900070E0C8010E94860C8CE090E00E943D123E
:1008A0007C01B8010E9481016E96FFAEEEAE6E979C
:1008B000BE01645A7F4F8DE094E00E948B00C80116
:1008C0000E94F80045EA50E063EA70E0C8010E9427
:1008D000860C8CE090E00E943D127C01B8010E94E1
:1008E00081016C96FFAEEEAE6C97BE01665A7F4FEB
:1008F00084E194E00E948B00C8010E94F80040E16E
:1009000050E062E170E0C8010E94860C8CE090E04B
:100910000E943D127C01B8010E9481016A96FFAEDF
:10092000EEAE6A97BE01685A7F4F84E194E00E9460
:100930008B00C8010E94F80049E650E067E670E0CD
:10094000C8010E94860C8CE090E00E943D127C0160
:10095000B8010E9481016896FFAEEEAE6897BE01B5
:100960006A5A7F4F8BE194E00E948B00C8010E947D
:10097000F80046E650E063E670E0C8010E94860C8D
:100980008CE090E00E943D127C01B8010E94810140
:100990006696FFAEEEAE6697BE016C5A7F4F8BE156
:1009A00094E00E948B00C8010E94F80049E350E0E7
:1009B0006CE370E0C8010E94860C8CE090E00E941D
:1009C0003D127C01B8010E9481016496FFAEEEAE3B
:1009D0006497BE016E5A7F4F82E294E00E948B00C2
:1009E000C8010E94F80042E450E06FE370E0C801E3
:1009F0000E94860C8CE090E00E943D127C01B801C0
:100A00000E9481016296FFAEEEAE6297BE01605B0E
:100A10007F4F82E294E00E948B00C8010E94F800A0
:100A200044E350E067E370E0C8010E94860C8CE06C
:100A300090E00E943D127C01B8010E948101609605
:100A4000FFAEEEAE6097BE01625B7F4F82E294E044
:100A50000E948B00C8010E94F80047E550E06AE55B
:100A600070E0C8010E94860C8CE090E00E943D126C
:100A70007C01B8010E9481012E96FFAEEEAE2E974A
:100A8000BE01645B7F4F82E294E00E948B00C8014C
:100A90000E94F8004CE450E060E570E0C8010E945C
:100AA000860C8CE090E00E943D127C01B8010E940F
:100AB00081012C96FFAEEEAE2C97BE01665B7F4F98
:100AC00082E294E00E948B00C8010E94F8004FE28D
:100AD00050E063E370E0C8010E94860C8CE090E077
:100AE0000E943D127C01B8010E9481012A96FFAE4E
:100AF000EEAE2A97BE01685B7F4F82E294E00E94CF
:100B00008B00C8010E94F8004BE450E066E470E0FE
:100B1000C8010E94860C8CE090E00E943D127C018E
:100B2000B8010E9481012896FFAEEEAE2897BE0163
:100B30006A5B7F4F82E294E00E948B00C8010E94B2
:100B4000F80042E550E065E570E0C8010E94860CBF
:100B50008CE090E00E943D127C01B8010E9481016E
:100B60002696FFAEEEAE2697BE016C5B7F4F82E20B
:100B700094E00E948B00C8010E94F80044E250E01B
:100B800061E270E0C8010E94860C8CE090E00E9457
:100B90003D127C01B8010E9481012496FFAEEEAEA9
:100BA0002497BE016E5B7F4F82E294E00E948B002F
:100BB000C8010E94F80047E150E06AE170E0C80116
:100BC0000E94860C8CE090E00E943D127C01B801EE
:100BD0000E9481012296FFAEEEAE2297BE01605CBC
:100BE0007F4F82E294E00E948B00C8010E94F800CF
:100BF00045E450E063E470E0C8010E94860C8CE09C
:100C000090E00E943D127C01B8010E948101FFAE7C
:100C1000EEAEBE01625C7F4F82E294E00E948B00E8
:100C2000C8010E94F8004DE250E068E270E0C8019F
:100C30000E94860C8CE090E00E943D127C01B8017D
:100C40000E948101FDAEECAEBE01645C7F4F82E28A
:100C500094E00E948B00C8010E94F80049E050E037
:100C600063E070E0C8010E94860C8CE090E00E9476
:100C70003D127C01B8010E948101FBAEEAAEBE01CB
:100C8000665C7F4F89E294E00E948B00C8010E945D
:100C9000F80045ED50E065ED70E0C8010E94860C5B
:100CA0008CE090E00E943D127C01B8010E9481011D
:100CB000F9AEE8AEBE01685C7F4F80E394E00E942D
:100CC0008B00C8010E94F80049ED50E069ED70E02A
:100CD000C8010E94860C8CE090E00E943D127C01CD
:100CE000B8010E948101FFAAEEAABE016A5C7F4F93
:100CF00080E394E00E948B00C8010E94F80042ED5E
:100D000050E062ED70E0C8010E94860C8CE090E03B
:100D10000E943D127C01B8010E948101FDAAECAA4B
:100D2000BE016C5C7F4F80E394E00E948B00C801A1
:100D30000E94F80048ED50E068ED70E0C8010E94A4
:100D4000860C8CE090E00E943D127C01B8010E946C
:100D50008101FBAAEAAABE016E5C7F4F80E394E0AA
:100D60000E948B00C8010E94F80047EC50E067EC3D
:100D700070E0C8010E94860C8CE090E00E943D1259
:100D80007C01B8010E948101F9AAE8AABE01605D58
:100D90007F4F80E394E00E948B00C8010E94F8001E
:100DA00049EB50E069EB70E0C8010E94860C8CE0D2
:100DB00090E00E943D127C01B8010E948101FFA6D3
:100DC000EEA6BE01625D7F4F80E394E00E948B003F
:100DD000C8010E94F8004FEB50E06EEB70E0C801D4
:100DE0000E94860C8CE090E00E943D127C01B801CC
:100DF0000E948101FDA6ECA6BE01645D7F4F80E3E9
:100E000094E00E948B00C8010E94F80043EB50E080
:100E100064EB70E07801C8010E94860C8CE090E0E1
:100E20000E943D126C01B8010E948101DBA6CAA696
:100E3000BE01665D7F4F80E394E00E948B00C80195
:100E40000E94F8004FEB50E06EEB70E0C8010E948A
:100E5000860C8CE090E00E943D126C01B8010E946B
:100E60008101D9A6C8A6BE01685D7F4F80E394E0EA
:100E70000E948B00C8010E94F80042EA50E061EA3B
:100E800070E0C8010E94860C8CE090E00E943D1248
:100E90006C01B8010E948101DFA2CEA2BE016A5D91
:100EA0007F4F80E394E00E948B00C8010E94F8000D
:100EB00045E950E066E970E0C8010E94860C8CE0CC
:100EC00090E00E943D126C01B8010E948101DDA2F8
:100ED000CCA2BE016C5D7F4F80E394E00E948B004A
:100EE000C8010E94F8004CE850E06DE870E0C801CD
:100EF0000E94860C8CE090E00E943D126C01B801CB
:100F00000E948101DBA2CAA2BE016E5D7F4F80E319
:100F100094E00E948B00C8010E94F8004AE650E06D
:100F20006AE670E0C8010E94860C8CE090E00E94A6
:100F30003D126C01B8010E948101D9A2C8A2BE0174
:100F4000605E7F4F80E394E00E948B00C8010E94A6
:100F5000F80042E650E062E670E0C8010E94860CAC
:100F60008CE090E00E943D126C01B8010E9481016A
:100F7000DF8ECE8EBE01625E7F4F80E394E00E94E2
:100F80008B00C8010E94F80046E550E066E570E07D
:100F9000C8010E94860C8CE090E00E943D126C011A
:100FA000B8010E948101DD8ECC8EBE01645E7F4F50
:100FB00080E394E00E948B00C8010E94F80041E5A4
:100FC00050E061E570E0C8010E94860C8CE090E082
:100FD0000E943D126C01B8010E948101DB8ECA8E15
:100FE000BE01665E7F4F80E394E00E948B00C801E3
:100FF0000E94F8004EE350E06DE370E0C8010E94EB
:10100000860C8CE090E00E943D126C01B8010E94B9
:101010008101D98EC88EBE01685E7F4F80E394E067
:101020000E948B00C8010E94F80048E350E068E38A
:1010300070E0C8010E94860C8CE090E00E943D1296
:101040006C01B8010E948101DF8ACE8ABE016A5E0E
:101050007F4F80E394E00E948B00C8010E94F8005B
:101060004EE250E06EE270E0C8010E94860C8CE017
:1010700090E00E943D126C01B8010E948101DD8A5E
:10108000CC8ABE016C5E7F4F80E394E00E948B00AF
:10109000C8010E94F80040E250E06FE170E0C80132
:1010A0000E94860C8CE090E00E943D126C01B80119
:1010B0000E948101DB8ACA8ABE016E5E7F4F80E397
:1010C00094E00E948B00C8010E94F80047E250E0C3
:1010D00065E270E0C8010E94860C8CE090E00E94FE
:1010E0003D128C01B7010E948101198B088BBE0152
:1010F000605F7F4F80E394E00E948B00C7010E94F5
:10110000F8004BE150E06EE170E0C7010E94860CF0
:101110008CE090E00E943D128C01B7010E94810199
:101120001F870E87BE01625F7F4F80E394E00E94BD
:101130008B00C7010E94F80043E150E066E170E0D7
:10114000C7010E94860C8CE090E00E943D128C0149
:10115000B7010E9481011D870C87BE01645F7F4F2C
:1011600080E394E00E948B00C7010E94F80042E0F7
:1011700050E061E070E0C7010E94860C8CE090E0D6
:101180000E943D128C01B7010E9481011B870A87D2
:10119000BE01665F7F4F80E394E00E948B00C70131
:1011A0000E94F8004CE050E06AE070E0C7010E9445
:1011B000860C8CE090E00E943D128C01B7010E94E9
:1011C000810119870887BE01685F7F4F80E394E043
:1011D0000E948B00C7010E94F800C957DF4F0FB66D
:1011E000F894DEBF0FBECDBFDF91CF911F910F915D
:1011F000FF90EF90DF90CF90089580E991E00895FF
:10120000569A08954F925F926F927F928F92AF920B
:10121000BF92CF92EF92FF920F931F93CF93DF93E2
:101220003C01EB010E94B90DF30127853089621B57
:10123000730B6A307105B0F3F894E881F9815BB102
:1012400050648BB18F7B8BB96A859F81262F291BB8
:10125000922F2F83BF844A805B807D85FC84EE843F
:101260007F5FF394E3943E814885A984CB84118108
:10127000D20120E0C32F022F322F31811127889411
:101280003111390F08F43FEF9195889470FD130FD9
:101290001795889471FD130F1795889472FD130F9D
:1012A0001795889473FD130F1795889474FD130F89
:1012B0001795889475FD130F1795889476FD130F75
:1012C0001795889477FD130F17958894232F711124
:1012D000212F960F122F002C5BB900C017FF8BB97E
:1012E00030812227889400C000C0002C8BB93111B6
:1012F0003C0F00C0002C5BB900C016FF8BB908F48E
:101300003FEFC195889400C000C0002C8BB9F0FC61
:10131000230F00C0002C5BB900C015FF8BB92795C7
:101320008894F1FC230F00C000C0002C8BB92795D6
:10133000889400C0002C5BB900C014FF8BB9F2FC8C
:10134000230F2795889400C000C0002C8BB9F3FCB4
:10135000230F00C0002C5BB900C013FF8BB9279589
:101360008894F4FC230F00C000C0002C8BB9279593
:10137000889400C0002C5BB900C012FF8BB9F5FC4B
:10138000230F2795889400C000C0002C8BB9F6FC71
:10139000230F00C0002C5BB900C011FF8BB927954B
:1013A0008894F7FC230F00C000C0002C8BB9279550
:1013B000889400C0002C5BB900C010FF8BB9132FBC
:1013C000F110122FCA0D00C000C0002C8BB900C054
:1013D00000C0002C5BB900C017FF8BB932812227F7
:1013E000889400C000C0002C8BB93111340F00C0AC
:1013F000002C5BB900C016FF8BB908F43FEFEB0D72
:10140000F11D00C000C0002C8BB9E0FC230F00C010
:10141000002C5BB900C015FF8BB927958894E1FCBF
:10142000230F00C000C0002C8BB92795889400C002
:10143000002C5BB900C014FF8BB9E2FC230F279589
:10144000889400C000C0002C8BB9E3FC230F00C0BF
:10145000002C5BB900C013FF8BB927958894E4FC7E
:10146000230F00C000C0002C8BB92795889400C0C2
:10147000002C5BB900C012FF8BB9E5FC230F279548
:10148000889400C000C0002C8BB9E6FC230F00C07C
:10149000002C5BB900C011FF8BB927958894E7FC3D
:1014A000230F00C000C0002C8BB92795889400C082
:1014B000002C5BB900C010FF8BB9132FE110122F65
:1014C000419500C000C0002C8BB94C0D00C000C07D
:1014D0005BB900C017FF8BB931812227889400C007
:1014E00000C0002C8BB93111390F00C0002C5BB942
:1014F00000C016FF8BB908F43FEF9195889400C0A7
:1015000000C0002C8BB970FD230F00C0002C5BB90C
:1015100000C015FF8BB92795889471FD230F00C07B
:1015200000C0002C8BB92795889400C0002C5BB9B3
:1015300000C014FF8BB972FD230F2795889400C05B
:1015400000C0002C8BB973FD230F00C0002C5BB9C9
:1015500000C013FF8BB92795889474FD230F00C03A
:1015600000C0002C8BB92795889400C0002C5BB973
:1015700000C012FF8BB975FD230F2795889400C01A
:1015800000C0002C8BB976FD230F00C0002C5BB986
:1015900000C011FF8BB92795889477FD230F00C0F9
:1015A00000C0002C8BB92795889400C0002C5BB933
:1015B00000C010FF8BB9132F7111122F960F00C0AE
:1015C00000C0002C8BB9119709F086CE20EE31E0D7
:1015D000D2010E940212DC01CB01F4E0B695A7957E
:1015E00097958795FA95D1F720E030E0A9016AE94F
:1015F000469E040C411D569E400D511D1124450D63
:10160000511D840F951FA11DB11D893E43E0940714
:10161000A105B10508F434C0885E9340A109B10961
:1016200042E0B695A795979587954A95D1F747E0FB
:10163000849F080E211D949F200D311D1124290F18
:10164000311D6091420170E0860F971F820F931F3A
:1016500040914301509144016091450170914601D0
:10166000292F3327420F531F611D711D40934301E2
:101670005093440160934501709346018093420169
:1016800078940E94B90DF301708B6787DF91CF9139
:101690001F910F91FF90EF90CF90BF90AF908F90E0
:1016A0007F906F905F904F9008950F931F93CF930B
:1016B000DF93CDB7DEB762970FB6F894DEBF0FBEEB
:1016C000CDBF8C01F901DC011C968C917A83698372
:1016D0005C834B835E834D8390819D8791819E8740
:1016E00092819F87813029F4CE0101960E94280EB5
:1016F00006C01C861B861A86198618861F8283E000
:10170000888B1A8A198AD801ED91FC910484F58599
:10171000E02DBE016F5F7F4FC801099562960FB63D
:10172000F894DEBF0FBECDBFDF91CF911F910F9117
:1017300008950F931F93CF93DF93CDB7DEB76297D2
:101740000FB6F894DEBF0FBECDBF8C01F901DC01EE
:101750001C968C917A8369835C834B835E834D8373
:1017600090819D8791819E8792819F87813029F406
:10177000CE0101960E94280E06C01C861B861A8682
:10178000198618861F82188A1A8A198AD801ED913B
:10179000FC910484F585E02DBE016F5F7F4FC80189
:1017A000099562960FB6F894DEBF0FBECDBFDF91EC
:1017B000CF911F910F910895CF92DF92EF92FF92F8
:1017C0000F931F93CF93DF936C017A018B01C0E0DD
:1017D000D0E0CE15DF0589F0D8016D918D01D601DD
:1017E000ED91FC910190F081E02DC6010995892BC6
:1017F00011F47E0102C02196ECCFC701DF91CF9199
:101800001F910F91FF90EF90DF90CF900895089572
:1018100080E090E008958EE594E00E94810D21E043
:10182000892B09F420E0822F08950E946A13EF9219
:10183000FF920F931F93CF93DF93EC0181E0888F8A
:101840009B8D8C8D981305C0E889F989808185FD71
:1018500026C0F62E0B8D10E00F5F1F4F0F73112760
:10186000E02E8C8DE8120CC00FB607FCFACFE88989
:10187000F989808185FFF5CFCE010E94970DF1CFC8
:101880008B8DFE01E80FF11DE35AFF4FF0829FB7E9
:10189000F8940B8FEA89FB89808180620AC09FB728
:1018A000F894EE89FF896083E889F98980818370E3
:1018B000806480839FBF81E090E0DF91CF911F9192
:1018C0000F91FF90EF900895CF93DF93EC01888DF7
:1018D0008823C9F0EA89FB89808185FD05C0A88934
:1018E000B9898C9186FD0FC00FB607FCF5CF8081BA
:1018F00085FFF2CFA889B9898C9185FFEDCFCE0104
:101900000E94970DE7CFDF91CF9108958F929F921C
:10191000AF92BF92CF92DF92EF92FF920F931F93FD
:10192000CF93DF9300D0CDB7DEB77C016B018A0186
:1019300088E090E0F701938382831582148280E12E
:1019400090E00E943D12F70191838083C6010197C8
:101950004C01C016D106FCF4B601660F771FC60E07
:10196000D71E20E030E05901E3E0AE0EB11C801636
:10197000910671F12C0D3D1D2C5B3E4F3A8329835E
:10198000BE016F5F7F4FC7010E9414019FEF891A4C
:10199000990A9501E8CF5801AA0CBB1CA00EB11EF4
:1019A000C12CD12C01501109F3E0CF1AD108081530
:1019B000190574F0C5018C0D9D1D895B9E4F9A839E
:1019C0008983BE016F5F7F4FC7010E941401EACF78
:1019D000C7010F900F90DF91CF911F910F91FF9052
:1019E000EF90DF90CF90BF90AF909F908F90089531
:1019F0001F920F920FB60F9211242F933F934F9384
:101A00005F936F937F938F939F93AF93BF93EF9366
:101A1000FF938EE594E00E94970DFF91EF91BF91A7
:101A2000AF919F918F917F916F915F914F913F9176
:101A30002F910F900FBE0F901F9018951F920F922D
:101A40000FB60F9211242F938F939F93EF93FF93D1
:101A5000E0916E04F0916F048081E0917404F09144
:101A6000750482FD12C09081809177048F5F8F731F
:101A700020917804821751F0E0917704F0E0E25A67
:101A8000FB4F958F8093770401C08081FF91EF9188
:101A90009F918F912F910F900FBE0F901F901895CF
:101AA000FC01538D448D252F30E0842F90E0821B64
:101AB000930B541710F0CF96089501970895FC01E9
:101AC000918D828D981761F0828DDF01A80FB11D75
:101AD0005D968C91928D9F5F9F73928F90E0089599
:101AE0008FEF9FEF0895FC01918D828D981731F053
:101AF000828DE80FF11D858D90E008958FEF9FEFA7
:101B00000895FC01918D228D892F90E0805C9F4F7C
:101B1000821B91098F739927089580E090E0892BAB
:101B200029F00E940B0C81110C9400000895FC0117
:101B3000848DDF01A80FB11DA35ABF4F2C91848D56
:101B400090E001968F739927848FA689B7892C938B
:101B5000A089B1898C91837080648C93938D848DDE
:101B6000981306C00288F389E02D80818F7D8083E1
:101B700008953FB7F89480910A0590910B05A091C4
:101B80000C05B0910D0526B5A89B05C02F3F19F097
:101B90000196A11DB11D3FBFBA2FA92F982F8827ED
:101BA000820F911DA11DB11DBC01CD0142E0660F48
:101BB000771F881F991F4A95D1F708951F920F929A
:101BC0000FB60F9211242F933F938F939F93AF9350
:101BD000BF938091430190914401A0914501B09140
:101BE00046013091090523E0230F2D3720F401969B
:101BF000A11DB11D05C026E8230F0296A11DB11D30
:101C0000209309058093430190934401A0934501DB
:101C1000B093460180910A0590910B05A0910C05A7
:101C2000B0910D050196A11DB11D80930A059093F9
:101C30000B05A0930C05B0930D05BF91AF919F913B
:101C40008F913F912F910F900FBE0F901F9018957D
:101C5000EF92FF920F931F93CF93DF93EC0190913C
:101C600008059F5F292F27702093080590FF02C069
:101C700090E801C090E021FD9064247009F090622A
:101C800020E1290FFE013C967E018FE0E80EF11C59
:101C900000E011E06191662331F070E0C8010E941C
:101CA000AD116F5F01C060E0DF0114976C93322FBC
:101CB000369F030E30E0311D1124CF0107973111FB
:101CC00003C0EC01188203C03150EC013883662355
:101CD00011F061506C93EE15FF05E1F6DF91CF91A5
:101CE0001F910F91FF90EF9008950F931F93CF9343
:101CF000DF931F92CDB7DEB7EEE5F4E013821282D8
:101D000088EE93E0A0E0B0E084839583A683B78358
:101D10008CE291E09183808385EC90E095878487C5
:101D200084EC90E09787868780EC90E0918B808BA5
:101D300081EC90E0938B828B82EC90E0958B848B8E
:101D400086EC90E0978B868B118E128E138E148EFC
:101D5000EBEFF4E08FEF80831282118214861386FA
:101D60008FEF9FEFDC0187839087A187B287BE0149
:101D70006F5F7F4F81EF93E00E940201BE016F5FB2
:101D80007F4F88EF93E00E940201BE016F5F7F4F9B
:101D90008FEF93E00E940201BE016F5F7F4F86E0EC
:101DA00094E00E940201BE016F5F7F4F8DE094E0DE
:101DB0000E940201BE016F5F7F4F84E194E00E94A8
:101DC0000201BE016F5F7F4F8BE194E00E94020130
:101DD000BE016F5F7F4F82E294E00E940201BE016C
:101DE0006F5F7F4F89E294E00E940201BE016F5F46
:101DF0007F4F80E394E00E9402010AEE13E088E046
:101E000090E0F801938382831582148288E390E046
:101E10000E943D12F801918380830F90DF91CF9152
:101E20001F910F910895CF93DF9300D01F92CDB7EC
:101E3000DEB7789484B5826084BD84B5816084BD4A
:101E400085B5826085BD85B5816085BD80916E0058
:101E5000816080936E001092810080918100826089
:101E600080938100809181008160809381008091C6
:101E700080008160809380008091B10084608093B5
:101E8000B1008091B00081608093B00080917A00B1
:101E9000846080937A0080917A00826080937A00D7
:101EA00080917A00816080937A0080917A008068C6
:101EB00080937A001092C100E0916E04F0916F045B
:101EC00082E08083E0916A04F0916B041082E091DB
:101ED0006C04F0916D048FEC808310927604E09195
:101EE0007204F091730486E08083E0917004F091B5
:101EF0007104808180618083E0917004F0917104AD
:101F0000808188608083E0917004F0917104808109
:101F100080688083E0917004F091710480818F7DEE
:101F2000808380914A04811145C010923C04109234
:101F30003B048FEF80933F048093400480934104DF
:101F400080934204809343048093440481E080930F
:101F50004504109247041092460410923E041092D9
:101F60003D048091580490915904892B31F489E300
:101F700094E09093590480935804E0913704F091D1
:101F80003804309721F089E394E09583848389E3D2
:101F900094E090933804809337041092490410928F
:101FA00048048AE191E090933A048093390481E0F7
:101FB00080934A04E0913904F0913A040480F58159
:101FC000E02D89E394E0099587E491E090933C0447
:101FD00080933B0481EE90E0909347048093460405
:101FE000E0913904F0913A040284F385E02D89E30D
:101FF00094E00995009729F19C0140E050E060E4ED
:1020000072E48FE090E00E94E311722F632F009141
:10201000FE041091FF042091000530910105872FE7
:10202000962FDA0180179107A207B30710F4D901A0
:10203000C8018093FE049093FF04A0930005B09321
:1020400001050E94C60180E090E02FEFFC01E95BF2
:10205000FE4F2083218322830396833A32E0930745
:10206000A9F744E050E06AE371E08EE594E00E9455
:10207000DC0B42E050E06FE371E08EE594E00E94FB
:10208000DC0BF090FB048091FE049091FF04A09182
:102090000005B0910105892B8A2B8B2BE9F00E945A
:1020A000B90D00915A0410915B0420915C043091A9
:1020B0005D04DC01CB01801B910BA20BB30B0091E3
:1020C000FE041091FF042091000530910105801756
:1020D0009107A207B307B8F20E94B90D60935A04A2
:1020E00070935B0480935C0490935D04E09106051B
:1020F000F0910705309759F0409102055091030582
:1021000060910405709105058F2D0995F82E0091B9
:102110005804109159044F2C512C612C712C01152D
:10212000110509F461C0D8011C96EC901C978091B0
:10213000FC049091FD048436910510F41C961C92C9
:10214000D801ED91FC91A280B38019821A821B8282
:10215000F11014C0F80145855685628173819E0196
:102160002F5F3F4FC801F5010995D8011C96EC92ED
:102170001C9714960D911C911597D1CFF8013996A3
:10218000CE0101966C0148019CE0890E911CDF0193
:1021900013973C902191332001F12223F1F0822FFB
:1021A00090E0A0E0B0E09C01AD012F5F3F4F4F4FAA
:1021B0005F4FC301B2010E949D119B01AC01832DB1
:1021C00090E0A0E0B0E0BC01CD016F5F7F4F8F4F8A
:1021D0009F4F0E949D11D6018C93BFEFCB1ADB0A53
:1021E000E815F905A1F6B6CF8091560490915704F1
:1021F0009C012F5F3F4F309357042093560449971B
:102200000CF44CC08FB7F8944091430150914401B5
:1022100060914501709146018FBF80915204909169
:102220005304A0915404B09155049A01AB01281BAA
:10223000390B4A0B5B0B21F421E030E040E050E029
:10224000E0915604F091570488EE93E0E89FB001C6
:10225000E99F700DF89F700D1124072E000C880B5C
:10226000990B0E94C1113093FD042093FC0410923D
:102270005704109256042FB7F8948091430190911F
:102280004401A0914501B09146012FBF80935204B3
:1022900090935304A0935404B09355040E948D0D61
:1022A000FDCF0F931F93CF93DF9300E010E0C0E0CA
:1022B000D0E02091EE033091EF038091EA039091FA
:1022C000EB03C217D30758F4FC01E00FF11F808124
:1022D00091810E94D2122196095F1F4FEACF0E947E
:1022E000D21280E394E00E94FD0089E294E00E9413
:1022F000FD0082E294E00E94FD008BE194E00E94E8
:10230000FD0084E194E00E94FD008DE094E00E94D5
:10231000FD0086E094E00E94FD008FEF93E00E94B4
:10232000FD0088EF93E00E94FD0081EF93E0DF91D4
:10233000CF911F910F910C94FD00DB018F939F9320
:102340000E940912BF91AF91A29F800D911DA39F82
:10235000900DB29F900D1124089597FB072E16F44F
:10236000009407D077FD09D00E94141207FC05D015
:102370003EF4909581959F4F0895709561957F4F9C
:102380000895A1E21A2EAA1BBB1BFD010DC0AA1FB6
:10239000BB1FEE1FFF1FA217B307E407F50720F0CE
:1023A000A21BB30BE40BF50B661F771F881F991F49
:1023B0001A9469F760957095809590959B01AC0192
:1023C000BD01CF010895052E97FB1EF400940E94D5
:1023D000FA1157FD07D00E94C11107FC03D04EF43B
:1023E0000C94FA1150954095309521953F4F4F4FE1
:1023F0005F4F089590958095709561957F4F8F4FB1
:102400009F4F08950E942E12B7FF0895821B930BD1
:1024100008950E942E12A59F900DB49F900DA49F29
:10242000800D911D11240895AA1BBB1B51E107C00B
:10243000AA1FBB1FA617B70710F0A61BB70B881F54
:10244000991F5A95A9F780959095BC01CD010895E3
:10245000EE0FFF1F0590F491E02D0994A29FB001AB
:10246000B39FC001A39F700D811D1124911DB29FC8
:10247000700D811D1124911D0895CF93DF9382303B
:10248000910510F482E090E0E0911005F0911105C3
:1024900020E030E0C0E0D0E0309711F14081518180
:1024A00048175907C0F04817590761F48281938192
:1024B000209719F09B838A832BC0909311058093FA
:1024C000100526C02115310519F04217530718F4DD
:1024D0009A01BE01DF01EF010280F381E02DDCCF24
:1024E0002115310509F1281B390B2430310590F4F1
:1024F00012968D919C9113976115710521F0FB0146
:102500009383828304C09093110580931005FD018D
:10251000329644C0FD01E20FF31F81939193225044
:1025200031092D933C933AC020910E0530910F054F
:10253000232B41F4209102013091030130930F05C8
:1025400020930E05209100013091010121153105E4
:1025500041F42DB73EB74091040150910501241B71
:10256000350BE0910E05F0910F05E217F307A0F48B
:102570002E1B3F0B2817390778F0AC014E5F5F4FD9
:102580002417350748F04E0F5F1F50930F054093F7
:102590000E058193919302C0E0E0F0E0CF01DF915E
:1025A000CF9108950F931F93CF93DF93009709F472
:1025B0008CC0FC0132971382128200911005109199
:1025C00011050115110581F420813181820F931FBE
:1025D00020910E0530910F052817390779F5F093F2
:1025E0000F05E0930E0571C0D80140E050E0AE1732
:1025F000BF0750F412962D913C911397AD01211510
:10260000310509F1D901F3CF9D01DA01338322832A
:1026100060817181860F971F8217930769F4EC011F
:1026200028813981260F371F2E5F3F4F318320834A
:102630008A819B8193838283452B29F4F093110532
:10264000E093100542C01396FC93EE931297ED01B0
:10265000499159919E01240F351FE217F30771F438
:1026600080819181840F951F029611969C938E9381
:102670008281938113969C938E931297E0E0F0E011
:10268000D80112968D919C911397009719F0F8013B
:102690008C01F6CF8D919C9198012E5F3F4F820F58
:1026A000931F20910E0530910F052817390769F403
:1026B000309729F4109211051092100502C0138270
:1026C000128210930F0500930E05DF91CF911F9199
:1026D0000F91089581E090E0F8940C946F1310E04E
:1026E000C5E3D0E004C0FE010E9428122196C63343
:0826F000D107C9F7F894FFCFF0
:1026F80000001205800000000000150C150C150CD8
:1027080067006300600000000000990B550B00098A
:1027180067006300FD08020900000000170CDC0BCD
:10272800500D640C810D5F0D730D73656E64000DA3
:022738000A0095
:00000001FF
